:100000000428FF3FFF3FFF3F0313831686010130A3
:10001000831286000D30FC00FF30FB00FF30FA0039
:10002000FC0B13281A28FB0B16281928FA0B162884
:1000300013281028BF30FB00FF30FA00FB0B2128EB
:100040002428FA0B21281E282B30FA00FA0B262828
:10005000000000000000033086000D30FC00FF307F
:10006000FB00FF30FA00FC0B36283D28FB0B39283B
:100070003C28FA0B392836283328BF30FB00FF30E4
:10008000FA00FB0B44284728FA0B442841282B3060
:10009000FA00FA0B49280000000000000730860033
:1000A0000D30FC00FF30FB00FF30FA00FC0B59283C
:1000B0006028FB0B5C285F28FA0B5C28592856281F
:1000C000BF30FB00FF30FA00FB0B67286A28FA0BF1
:1000D000672864282B30FA00FA0B6C280000000017
:1000E00000000F3086000D30FC00FF30FB00FF30B9
:1000F000FA00FC0B7C288328FB0B7F288228FA0B54
:100100007F287C287928BF30FB00FF30FA00FB0BEA
:100110008A288D28FA0B8A2887282B30FA00FA0BB8
:100120008F280000000000001F3086000D30FC000A
:10013000FF30FB00FF30FA00FC0B9F28A628FB0BCA
:10014000A228A528FA0BA2289F289C28BF30FB00D4
:10015000FF30FA00FB0BAD28B028FA0BAD28AA2817
:100160002B30FA00FA0BB2280000000000003F30EC
:1001700086000D30FC00FF30FB00FF30FA00FC0B66
:10018000C228C928FB0BC528C828FA0BC528C228D5
:10019000BF28BF30FB00FF30FA00FB0BD028D3286C
:1001A000FA0BD028CD282B30FA00FA0BD528000006
:1001B000000000007F3086000D30FC00FF30FB00A7
:1001C000FF30FA00FC0BE528EC28FB0BE828EB28B5
:1001D000FA0BE828E528E228BF30FB00FF30FA00E0
:1001E000FB0BF328F628FA0BF328F0282B30FA0043
:1001F000FA0BF828000000000000FF3086000D30E8
:10020000FC00FF30FB00FF30FA00FC0B08290F292F
:10021000FB0B0B290E29FA0B0B2908290529BF30E6
:10022000FB00FF30FA00FB0B16291929FA0B1629DF
:1002300013292B30FA00FA0B1B29000000000000E4
:1002400086010D30FC00FF30FB00FF30FA00FC0B94
:100250002A293129FB0B2D293029FA0B2D292A298E
:100260002729BF30FB00FF30FA00FB0B38293B2960
:10027000FA0B382935292B30FA00FA0B3D290000FA
:100280000000000007284329FF3FFF3FFF3FFF3FDB
:02400E007A3FF7
:00000001FF
