:1000000066EF14F00000000000EF00F000000000B8
:0A0010000000000000000000F3D71C
:10001C007FC3C9FFC7B002D00000FCD7C9CF00F026
:02002C001200C0
:10002E00F250026EF29E0500FF6A0150FE6E005005
:08003E00FD6E02BEF28E1200FD
:100046008B92400E03017C11006EB1C2E1FFB2C279
:10005600E2FF00C0E6FFAFC200F0B0C201F0E4DF8D
:10006600B1C2E1FFB2C2E2FF7DC3E6FFAFC200F05C
:10007600B0C201F0D9DFB1C2E1FFB2C2E2FF7EC376
:10008600E6FFAFC200F0B0C201F0CEDF8B821200F5
:10009600020E03017C6F79C37DF37AC37EF3D0DF52
:1000A6008B92B1C2E1FFB2C2E2FF7A0EE66EAFC238
:1000B60000F0B0C201F0B8DFB1C2E1FFB2C2E2FFA8
:1000C6007BC3E6FFAFC200F0B0C201F0ADDF8B82AA
:0200D600120016
:1000D8008B92A00E03017911006EB1C2E1FFB2C28A
:1000E800E2FF00C0E6FFAFC200F0B0C201F09BDF44
:1000F800B1C2E1FFB2C2E2FF7AC3E6FFAFC200F0CD
:0A010800B0C201F090DF8B821200FC
:100112008B92B1C2E1FFB2C2E2FF7A0EE66EAFC2CB
:1001220000F0B0C201F082DFB1C2E1FFB2C2E2FF71
:1001320079C3E6FFAFC200F0B0C201F077DF8B8275
:020142001200A9
:1001440003017C6B79C37DF37AC37EF37ADF8B92F0
:10015400B1C2E1FFB2C2E2FF3A0EE66EAFC200F0F6
:10016400B0C201F062DFB1C2E1FFB2C2E2FFE66AEF
:0E017400AFC200F0B0C201F058DF8B82120063
:100182008B92800E03017911006EB1C2E1FFB2C2FF
:10019200E2FF00C0E6FFAFC200F0B0C201F046DFEE
:1001A200B1C2E1FFB2C2E2FF7AC3E6FFAFC200F022
:0A01B200B0C201F03BDF8B821200A7
:1001BC008B92B1C2E1FFB2C2E2FF79C3E6FFAFC2DC
:1001CC0000F0B0C201F02DDFB1C2E1FFB2C2E2FF1C
:1001DC00E66AAFC200F0B0C201F023DF8B821200DE
:1001EC000301786B010E6D5F000E6E5B71530DE0B9
:1001FC006E51190802E16D51AD0807E2782BAD0E76
:10020C006D5D766F190E6E59776F785305E0AD0EF4
:10021C00726F190E736F04D06DC372F36EC373F3E8
:10022C006C51731902E172516B190DE16BC379F3C7
:10023C006CC37AF381DF00C07BF36FC379F370C3B7
:10024C007AF323DF36D0100E03017C6F6BC37DF382
:10025C006CC37EF3F2DE120E03017C6F785305E063
:10026C00AD0E746F190E756F04D06DC374F36EC33D
:10027C0075F374C37DF375C37EF3DFDE140E0301D7
:10028C007C6F6FC37DF370C37EF3D7DE1F0E03014B
:10029C00796F100E7A6F1ADF1F0E0301796F200E23
:1002AC007A6F69DF1F0E0301796F82DF00AA01D01C
:1002BC00F9D7030178531AE06B516D5D006E6C51E8
:1002CC006E59016E7651005E7751015A004A012A2F
:1002DC0000506F2701507023010E765D6D6F000E7C
:0E02EC0077596E6F6B6B6C6B786B8FD712004F
:1002FA008B92B1C2E1FFB2C2E2FF7A0EE66EAFC2E2
:10030A0000F0B0C201F08EDE6DC300F06EC301F0E2
:10031A00010E03016D5F000E6E5B0050011013E0C9
:10032A00B1C2E1FFB2C2E2FF6BC3E9FF6CC3EAFFED
:10033A00EECFE6FFAFC200F0B0C201F073DE0301F8
:0A034A006B4B6C2BE1D78B82120085
:10035400020E03017C6F6BC37DF36CC37EF371DE0D
:100364008B92B1C2E1FFB2C2E2FF7A0EE66EAFC277
:1003740000F0B0C201F059DE03016F51701117E0B3
:10038400B1C2E1FFB2C2E2FF6DC3E9FF6EC3EAFF8F
:10039400EECFE6FFAFC200F0B0C201F046DE0301CB
:1003A4006D4B6E2B010E6F5F000E705BE5D78B8279
:0203B400120035
:1003B6006BC379F36CC37AF36DC37BF369DE6EC3EB
:0603C60079F3A4DE120031
:1003CC0003016D516B256F6F6E516C21706F010EB7
:1003DC006F5F000E705B100E7C6F6BC37DF36CC394
:1003EC007EF32BDE120E03017C6F6FC37DF370C3A3
:1003FC007EF323DE1F0E0301796F300E7A6FBBDEA6
:10040C001F0E0301796FD4DE00AA01D0F9D71200B8
:10041C008B92B1C2E1FFB2C2E2FF7A0EE66EAFC2BE
:10042C0000F0B0C201F0FDDDB1C2E1FFB2C2E2FFEB
:10043C006CC3E6FFAFC200F0B0C201F0F2DDB1C296
:10044C00E1FFB2C2E2FF6BC3E6FFAFC200F0B0C285
:08045C0001F0E7DD8B821200C4
:100464006DC304F06EC305F06BC302F06CC303F0FC
:100474006FC300F070C301F0010E03016F5F000E43
:10048400705B005001100FE004C0E9FF05C0EAFFF3
:1004940002C0E1FF03C0E2FFEECFE6FF024A032AF7
:1004A400044A052AE5D76BC300F06CC301F01200BF
:1004B400AE0E0301796F190E7A6F7B6BEADDAE0E17
:1004C40003016B25006E190E6C21016E00C06BF3E5
:1004D40001C06CF3060E7C6F00C07DF301C07EF397
:1004E400B0DD1F0E0301796F800E7A6F48DE1F0E98
:1004F4000301796F800E7A6FEDDD02018151050AE7
:1005040004E08151070A01E006D01C0E0301796F53
:100514000A0E7A6FDFDD1F0E0301796F080E7A6F02
:100524002EDE02018151050A04E08151070A01E02F
:1005340080D00301706B716B1C0E796F3DDE0A0E67
:10054400001600520AE10301704B712B030E715D1A
:1005540002E1E80E705D01E2EFD703011C0E796F32
:100564002BDE00B208D0030E0301715D02E1E80E38
:10057400705D01E25DD003011F0E796F080E7A6F82
:10058400A9DD040E03016B25796F000E6C217A6FCF
:10059400D7DD00C06FF303016D6B100E6D5D48E293
:1005A4001C0E796F09DE00A23FD003016FAB3CD073
:1005B4001F0E796F800E7A6FE2DD1F0E0301796FD3
:1005C400800E7A6F87DD1C0E0301796F0A0E7A6F35
:1005D40081DD1F0E0301796F080E7A6FD0DD0301F0
:1005E400706B716B1C0E796FE7DD0A0E00160052FA
:1005F4000AE10301704B712B030E715D02E1E80EF9
:10060400705D01E2EFD703011F0E796F080E7A6F58
:1006140061DD040E03016B25796F000E6C217A6F86
:100624008FDD00C06FF301D003D003016D2BB5D76C
:1006340007D003011F0E796FBFDD00A601D0F9D7E3
:100644001D0E0301796FB8DD060E0016005203E09B
:1006540003016E6B03D00301010E6E6F6EC300F0D5
:02066400120082
:100666005DC36BF35EC36CF3A90E03016D6F020EDF
:100676006E6F040E6F6F000E706FF1DE5F6B5F5171
:10068600030821E35F515D25026E000E5E21036EB5
:1006960002C0E9FF03C0EAFFEECF01F0A50EE96E46
:1006A600020EEA6E5F51E926D8B0EA2AFF0EEE186E
:1006B600006E0150001202C0E1FF03C0E2FF00C05D
:0806C600E6FF5F2BDCD71200F8
:1006CE00AF0E03016B6F190E6C6F5DC36DF35EC3DE
:1006DE006EF3060E6F6F000E706F35DE9A0E6B6F37
:1006EE00020E6C6F060E6D6F000E6E6FFFDD000E4C
:1006FE006B6F080E6C6F8BDE1C0E03016525686F29
:10070E00000E6621696F000E6B6F450E6C6F7FDEFB
:10071E0068C36BF369C36CF37ADEC7C26BF3C8C2EE
:10072E006CF375DE0201C74BC82B03016B6B6C6B50
:10073E006EDE110E03016B6F800E6C6F68DE0301AF
:10074E006B6B6C6B64DEA90E03016B6F020E6C6F2C
:10075E00040E6D6F000E6E6FC9DD5FC36BF360C369
:10076E006CF3040E6D6F000E6E6FC0DD080E652506
:10077E00686F000E6621696F61C36BF362C36CF321
:10078E0046DE63C36BF364C36CF341DE68C36BF385
:10079E0069C36CF33CDE03016B6B6C6B38DEBD0E14
:1007AE0003016B6F190E6C6F140E6D6F000E6E6F72
:1007BE0006DE160E0301796FFADC00C06AF3170E1F
:1007CE000301796FF4DC00C06DF3C70E03016B6F8C
:1007DE00190E6C6F6AC36EF3E7DD010E0301681527
:1007EE00676FD90E6525796F190E66217A6F7B6B4F
:1007FE004BDCC90E03016B6F190E6C6FD10E6D6F52
:10080E00190E6E6FD90E65256F6F190E6621706FFA
:10081E0067516F27000E7023716BE1DCD90E6525D1
:10082E006B6F190E66216C6F67516B27000E6C2370
:10083E00080E6B27000E6C236D6B110E6E6FB4DD00
:10084E0069C379F35FDC68C379F35CDCD10E030115
:10085E006B6F190E6C6F0C0E68256D6F000E692193
:10086E006E6F67516D27000E6E23A9DD160E030104
:10087E00796F9DDC00C06AF3170E0301796F97DC68
:10088E0000C06DF3D70E03016B6F190E6C6F6AC348
:10089E006EF38ADD2A0E030165256B6F000E66214D
:0608AE006C6F01DE120078
:1008B4008B92B1C2E1FFB2C2E2FF7A0EE66EAFC222
:1008C40000F0B0C201F017EC00F060C300F061C3A7
:1008D40001F0010E0301605F000E615B0050011026
:1008E4001CE0B1C2E1FFB2C2E2FF5DC3F6FF5EC32A
:1008F400F7FF5FC3F8FF0900F5CF00F000C0E6FF83
:10090400AFC200F0B0C201F017EC00F0010E030119
:0E0914005D27000E5E235F23D8D78B82120072
:1009220003016051FF0A02E1FF0E5F1907E07C6BD1
:100932005FC37DF360C37EF323EC00F08B92B1C200
:10094200E1FFB2C2E2FF3A0EE66EAFC200F0B0C201
:1009520001F017EC00F061C300F062C301F0010E78
:100962000301615F000E625B0050011015E0B1C22D
:10097200E1FFB2C2E2FFE66AAFC200F0B0C201F02C
:1009820017EC00F05DC3E1FF5EC3E2FF00C0E6FFCB
:0C09920003015D4B5E2BDFD78B8212004F
:10099E008B92B1C2E1FFB2C2E2FF3A0EE66EAFC277
:1009AE0000F0B0C201F017EC00F0B1C2E1FFB2C22C
:1009BE00E2FFE66AAFC200F0B0C201F017EC00F041
:0409CE008B82120006
:1009D20061C301F062C302F0010E0301615F000E08
:1009E200625B000E021802E1000E01181FE05DC3F7
:1009F200E9FF5EC3EAFF5FC3D9FF60C3DAFFEE50CF
:100A0200DE180FE05DC3E9FF5EC3EAFF5FC3D9FFF3
:100A120060C3DAFFDE50EE5C006E016A000E015A1E
:100A220007D05D4B5E2B5F4B602BD2D7006A016A09
:020A32001200B0
:100A3400060E0C6E2B0E0D6E0D2EFED70C2EFCD753
:020A440012009E
:100A46000301576B3C0E0201A16F000EA26FA36F4C
:100A5600A46FA2DF00C055F30050020AD8A419D132
:100A66000301566B0F0E565D04E296DF0301562B0B
:100A7600F9D7B30E5D6F020E5E6FFF0E5F6FFF0E4E
:100A8600606F040E616F000E626F48DF566B080ED2
:100A9600565D04E281DF0301562BF9D7566B060E2D
:100AA600565D12E279DF00C055F39A0ED96E020E3A
:100AB600DA6E03015651D926D8B0DA2A0050DE186C
:100AC60001E012D1562BEBD7566BCE0E565D04E2E3
:100AD60063DF0301562BF9D7586B5EDF00C055F371
:100AE600B9D05ADF00C055F30050010A04E154DFC3
:100AF60000C057F301D0F8D0C8D04EDF00C055F380
:100B06000050040A0FE1C90E03015D6F020E5E6F0D
:100B1600FF0E5F6FFF0E606F040E616F000E626F57
:100B2600FDDE01D0E1D0B1D037DF00C055F3040EB1
:100B3600005C0FE3BF0E03015D6F020E5E6FFF0EDA
:100B46005F6FFF0E606F040E616F000E626FE6DE70
:100B560001D0CAD00301040E555F030155C300F04E
:100B66005507005202E018DFF8D78FD015DF00C016
:100B760055F3040E005C0FE3C30E03015D6F020E16
:100B86005E6FFF0E5F6FFF0E606F040E616F000EEB
:100B9600626FC4DE01D0A8D00301040E555F0301C5
:100BA60055C300F05507005202E0F6DEF8D76DD0C7
:100BB600F3DE00C055F30050040A0FE1590E03019D
:100BC6005D6F030E5E6FFF0E5F6FFF0E606F040EAC
:100BD600616F000E626FA2DE01D086D056D003018F
:100BE600010E586F52D0D8DE00C055F30050040AEB
:100BF60023E1A10E03015D6F020E5E6FFF0E5F6FB4
:100C0600FF0E606F040E616F000E626F87DE0201D9
:100C1600A451000808E1A351000805E1A251070804
:100C260002E1A151080807E2080EA15F070EA25BC8
:100C3600000EA35BA45B01D057D027D0ADDE00C069
:100C460055F355C300F003015507005202E0A4DE38
:100C5600F8D71BD003015551350AD8B442D75551A0
:100C6600010AD8B44AD75551030AD8B45DD75551AD
:100C7600060AD8B47BD75551360A9AE05551FF0A71
:100C8600AEE05551330AAFE0D9D703015853D8B473
:100C960024D703015751020A0FE17D0E6B6F020E36
:100CA6006C6F590E6D6F030E6E6F040E6F6F000E34
:100CB600706F32EC02F015D07D0E5D6F020E5E6F26
:100CC600590E5F6F030E606F040E616F000E626F48
:100CD6007DDE000E011802E1000E001802E003019D
:0C0CE600576B57C300F001D0006A1200E9
:100CF200A50E03016B6F020E6C6F55C36DF356C3E5
:100D02006EF3040E6F6F000E706F32EC02F0820E03
:100D12006B6F020E6C6F57C36DF358C36EF3040E04
:100D22006F6F000E706F32EC02F0050E6B6F030EE8
:100D32006C6F59C36DF35AC36EF3040E6F6F000EDE
:100D4200706F32EC02F0FA0E5D6F020E5E6F8ADC9B
:020D520012008D
:100D540055C302F056C303F058C300F059C301F061
:100D6400010E0301585F000E595B0050011009E0A9
:100D740002C0E1FF03C0E2FF57C3E6FF024A032AB1
:0C0D8400EBD755C300F056C301F012007D
:100D9000F90E0301586F000E596F020E7C6FD90EC9
:100DA0007D6F190E7E6F23EC00F09F0E03015D6FC7
:100DB0002B0E5E6F000E5F6F0C0E606F000E616F8A
:100DC00079DD5551030A0DE156530BE0B30E6B6FFD
:100DD000020E6C6F040E6D6F000E6E6F7DEC01F0F5
:100DE0000AD0576B040E575D06E2796B89EC00F070
:100DF0000301572BF7D7576B0C0E575D06E2796B43
:100E000089EC00F00301572BF7D79A0E6B6F020E97
:100E10006C6F060E6D6F000E6E6F7DEC01F0576B00
:100E2000CA0E575D06E2796B89EC00F00301572B7F
:100E3000F7D7B70E5D6F2B0E5E6F000E5F6F060E5D
:100E4000606F000E616F36DD55C379F389EC00F0F9
:100E500003015551030A1AE1565318E1360E796F12
:100E600089EC00F0040E0301796F89EC00F07D0E2F
:100E700003016B6F020E6C6F040E6D6F000E6E6FD0
:100E80007DEC01F0060E5827000E5923BD0E5D6F54
:100E90002B0E5E6F000E5F6F050E606F000E616FB0
:100EA00009DD5551030A23E1565321E1320E796FD2
:100EB00089EC00F0040E0301796F89EC00F0030166
:100EC000576B040E575D0FE2B30EE96E020EEA6E29
:100ED0005751E926D8B0EA2AEECF79F389EC00F031
:100EE0000301572BEED7060E5827000E5923FF0E8D
:100EF000796F89EC00F0660E03015D6F020E5E6F84
:100F0000660E5F6F020E606F440E616F000E626FBF
:100F1000430E636F000E646F58C365F359C366F3E5
:060F200067EC03F0120073
:100F26000301596B5A6B8B92B1C2E1FFB2C2E2FF69
:100F36007A0EE66EAFC200F0B0C201F017EC00F018
:100F460055C300F056C301F057C302F0010E03016A
:100F56005527000E5623572300C0F6FF01C0F7FFA2
:100F660002C0F8FF0900F5CF00F000C058F30052A8
:100F760010E0B1C2E1FFB2C2E2FF58C3E6FFAFC262
:100F860000F0B0C201F017EC00F00301594B5A2BE8
:0E0F9600D7D78B8259C300F05AC301F0120066
:100FA4000301586B596B8B92B1C2E1FFB2C2E2FFED
:100FB4007A0EE66EAFC200F0B0C201F017EC00F09A
:100FC40055C300F056C301F00301554B562B00C026
:100FD400E9FF01C0EAFFEECF00F000C057F3005272
:100FE40010E0B1C2E1FFB2C2E2FF57C3E6FFAFC2F5
:100FF40000F0B0C201F017EC00F00301584B592B7C
:0E100400DFD78B8258C300F059C301F01200F1
:10101200B50E03016B6F190E6C6FBB0E6D6F190E5F
:101022006E6FAF0E6F6F190E706F716BF6EC00F092
:10103200B50E6B6F190E6C6F9A0E6D6F020E6E6F9E
:0E104200060E6F6F000E706FAAEC01F0120028
:101050000B6A0A6A096A00500402F4CF09F0F3CF60
:1010600008F001500502F4CF0BF0F3CF0AF0005066
:101070000502F3500926F4500A22E86A0B220150B7
:101080000402F3500926F4500A22E86A0B2208C031
:1010900000F009C001F00AC002F00BC003F012001A
:1010A0000301796BDEEC00F000C04CF3010E03018C
:1010B000796FDEEC00F000C04DF303017C6B47C399
:1010C0007DF348C37EF323EC00F08B92B1C2E1FFC5
:1010D000B2C2E2FF3A0EE66EAFC200F0B0C201F05B
:1010E00017EC00F003014B5318E0B1C2E1FFB2C2AC
:1010F000E2FFE66AAFC200F0B0C201F017EC00F008
:1011000049C3D9FF4AC3DAFF0050DE1801E005D019
:101110000301494B4A2B4B07E5D703018B827C6BBC
:101120004CC37DF34DC37EF323EC00F04BC300F0C2
:021130001200AB
:101132000301476BC80E475D04E27BDC7ADC472B78
:04114200F9D71200C7
:101146008B92400E03014711006EB1C2E1FFB2C29D
:10115600E2FF00C0E6FFAFC200F0B0C201F017EC3C
:1011660000F0B1C2E1FFB2C2E2FF48C3E6FFAFC280
:0E11760000F0B0C201F017EC00F08B82120006
:1011840003014851190802E14751AD0804E2AE0ECB
:10119400475F190E485B7C6B47C37DF348C37EF3FE
:0611A40023EC00F0120034
:1011AA00000E03014C1902E1500E4B1903E0006ACC
:1011BA00016ABCD0516B526B000E525D02E10F0EF8
:1011CA00515D12E2860E5125536F020E5221546F61
:1011DA00CFEC04F053C3E1FF54C3E2FF00C0E6FFC3
:1011EA000301514B522BE8D7860E5125E16E020EB0
:1011FA005221E26EE66A860E5D6F020E5E6F380E4F
:10120A005F6F000E606F050E616F000E626FE9EC92
:10121A0004F00050011003E0006A016A87D0910EC1
:10122A0003015D6F020E5E6F350E5F6F000E606F19
:10123A00020E616F000E626FE9EC04F000500110BB
:10124A0002E1818013D0910E03015D6F020E5E6F81
:10125A004A0E5F6F020E606F030E616F000E626FBF
:10126A00E9EC04F000500110D8B4819081A01ED09E
:10127A00920E03016B6F010E6C6F2D0E6D6F000ED7
:10128A006E6F060E6F6F000E706F32EC02F0ED0E8D
:10129A006B6F010E6C6F250E6D6F000E6E6F060E72
:1012AA006F6F000E706F32EC02F01DD00301920EC8
:1012BA006B6F010E6C6F1D0E6D6F000E6E6F060E5A
:1012CA006F6F000E706F32EC02F0ED0E6B6F010E55
:1012DA006C6F150E6D6F000E6E6F060E6F6F000E3F
:1012EA00706F32EC02F0800E556F2B0E566F000EA7
:1012FA00576F14DE00C051F301C052F3AB0E556FA5
:10130A002B0E566F000E576F09DE00505127015001
:10131A0052233E0E556F000E566F3FDE5151002686
:0E132A005251012200C051F301C052F31200D3
:10133800C90E03016B6F190E6C6FCD0E6D6F190E10
:101348006E6FCD0E6F6F190E706F716BF6EC00F04B
:10135800C90E6B6F190E6C6FA90E6D6F020E6E6F52
:0E136800040E6F6F000E706FAAEC01F0120001
:06137600006A016A12008A
:10137C00CFEC04F0CFEC04F0CFEC04F000C048F359
:10138C00CFEC04F000C047F3CFEC04F000C04AF3FC
:10139C00CFEC04F000C049F3CFEC04F000C04CF3E8
:1013AC00CFEC04F000C04BF3CFEC04F0CFEC04F026
:1013BC00CFEC04F0CFEC04F049C300F04AC301F0C9
:1013CC00010E0301495F000E4A5B005001100EE054
:1013DC00CFEC04F0005201E0FBD7CFEC04F0CFECE3
:1013EC0004F0CFEC04F0CFEC04F0E6D74BC300F0E4
:1013FC004CC301F0010E03014B5F000E4C5B00501F
:10140C00011048E0CFEC04F0CFEC04F0CFEC04F08A
:10141C0000C050F3CFEC04F000C04FF3CFEC04F05D
:10142C00CFEC04F0CFEC04F0CFEC04F0CFEC04F0F4
:10143C00CFEC04F0CFEC04F000C04EF3CFEC04F092
:10144C0000C04DF3000E0301501902E1010E4F19BB
:10145C0011E1CFEC04F000C0BBF2CFEC04F000C003
:10146C00BCF2CFEC04F000C0BDF2CFEC04F000C035
:10147C00BEF210D04DC300F04EC301F0010E0301BB
:10148C004D5F000E4E5B0050011003E0CFEC04F0FA
:06149C00F1D7ACD71200ED
:1014A200B4D0A90E0301556F020E566F576B040E8E
:1014B200586F000E596F4DDC010E556F566B67DC8D
:1014C2006EC2B7F26FC2B8F270C2B9F271C2BAF2AA
:1014D200030E02016C6FACD0050EB725016E000E33
:1014E200B821026E000EB921036E000EBA21046EFD
:1014F2007151045C08E17051035C05E16F51025CBB
:1015020002E16E51015C02E2020E6C6F23EC05F007
:101512000050020A04E1040E02016C6F01D088D06F
:10152200030E0301556F7CC256F331DC6EC2B7F273
:101532006FC2B8F270C2B9F271C2BAF2050E0201FC
:101542006C6F76D023EC05F000C047F30050060A1A
:1015520004E1040E02016C6F2FD003014751050A0A
:101562002BE16EC2B7F26FC2B8F270C2B9F271C2A9
:10157200BAF2060E02016C6FA90E03016B6F020E26
:101582006C6FB30E6D6F020E6E6F040E6F6F000EF6
:10159200706F32EC02F0C90E556F020E566FBF0E1D
:1015A200576F020E586FC30E596F020E5A6F79ECC5
:1015B20006F002017C6B3CD03BD00201010EB72544
:1015C200016E000EB821026E000EB921036E000EEC
:1015D200BA21046E0450715D08E10350705D05E1AB
:1015E20002506F5D02E101506E5D0EE3010EA15FDC
:1015F200000EA25BA35BA45B6EC2B7F26FC2B8F22D
:1016020070C2B9F271C2BAF213D002016C51020A6D
:10161200D8B447D76C51030AD8B45ED76C51040AC8
:10162200D8B47ED76C51050A8DE06C51060AC5E02C
:021632001200A4
:101634001EC379F31FC37AF3A2EC00F000C02EF3AB
:10164400CFEC04F000C02DF3CFEC04F000C02CF379
:10165400CFEC04F000C02BF30301336B386B010EA5
:10166400396F366B376B0C0E1E25796F000E1F21F8
:101674007A6FA2EC00F000C031F3000E0301326F68
:101684003133319F3133319F000E326FFC0E3117ED
:10169400FF0E3217420E5D6F030E5E6FC90E5F6F51
:1016A400190E606F040E616F000E626F91EC04F00E
:1016B4000D0E1E25796F000E1F217A6FA2EC00F02B
:1016C4003F0E001403012F6F306B000E3017000E15
:1016D400306F0E0E0201AD5D0301346F000E020186
:1016E400AE590301356F1C51345F1D51355B3151C7
:1016F400345F3251355B020E1E25796F000E1F21B7
:101704007A6FA2EC00F000C07BF31EC379F31FC311
:101714007AF34BEC00F0030E03011E25796F000EE3
:101724001F217A6FA2EC00F000C079F389EC00F07D
:101734002DC36BF32EC36CF30EEC02F0040E030105
:101744001E25796F000E1F217A6FA2EC00F000C0F5
:101754003DF3CFEC04F000C03CF3CFEC04F000C048
:101764003BF3CFEC04F000C03AF3CFEC04F000C03C
:1017740041F3CFEC04F000C040F3CFEC04F000C020
:101784003FF3CFEC04F000C03EF3000E0301301928
:1017940002E1020E2F193DE1010E3A25006E000E02
:1017A4003B21016E000E3C21026E000E3D21036EB2
:1017B40000C03EF301C03FF302C040F303C041F355
:1017C400120E2F6F000E306F0C0E796FDEEC00F0EE
:1017D40000C03AF30D0E0301796FDEEC00F000C097
:1017E4003BF30301796BDEEC00F000C03CF3010E27
:1017F4000301796FDEEC00F000C03DF30301332BED
:10180400180E316F000E326F366B376B0201556B59
:1018140070D0000E0301301902E1180E2F192FE1C8
:101824003AC320F33BC321F33CC322F33DC323F368
:101834003EC33AF33FC33BF340C33CF341C33DF3E0
:1018440034512025006E35512121016E000E2221D4
:10185400026E000E2321036E00C03EF301C03FF36D
:1018640002C040F303C041F3100E2F6F000E306F1F
:10187400332B140E316F000E326F382B3AD0000E1A
:10188400301902E1110E2F1934E13AC324F33BC39A
:1018940025F33CC326F33DC327F33EC33AF33FC3CA
:1018A4003BF340C33CF341C33DF3010E2425006EDA
:1018B400000E2521016E000E2621026E000E272146
:1018C400036E00C03EF301C03FF302C040F303C007
:1018D40041F3100E2F6F000E306F332B140E316F47
:1018E400000E326F366B376B0201545302E1552BF5
:1018F400546B03013353D8B4D3D10301040E1E2512
:101904006B6F000E1F216C6F3DC36DF33CC36EF310
:10191400DBEC01F03BC379F389EC00F03AC379F3D3
:1019240089EC00F041C379F389EC00F040C379F30A
:1019340089EC00F03FC379F389EC00F03EC379F3FE
:1019440089EC00F00C0E03011E25796F000E1F2197
:101954007A6FA2EC00F00F0E001403017B6F31C309
:1019640000F0003600900036009000507B130C0EFF
:101974001E25796F000E1F217A6F4BEC00F00D0EBF
:1019840003011E25796F000E1F217A6FA2EC00F06F
:10199400C00E001403017B6F2F517B130D0E1E2507
:1019A400796F000E1F217A6F4BEC00F0000E0301DB
:1019B400301902E1120E2F1923E10E0E1E256B6F52
:1019C400000E1F216C6F050E6D6FEE0E6E6FDBEC5B
:1019D40001F0140E03011E256B6F000E1F216C6FA6
:1019E400020E6D6F040E6E6FDBEC01F0050E030149
:1019F400796F89EC00F0780E0301796F89EC00F0BF
:101A040003011C513625346F1D513721356F315177
:101A1400342732513523395303E009EC08F08ADCCA
:101A2400BF0E6B6F190E6C6F35C36DF334C36EF359
:101A3400DBEC01F0C70E03016B6F190E6C6F6D6B5D
:101A44006E6BDBEC01F0BD0E03016B6F190E6C6F56
:101A54001CC36DF31DC36EF3E6EC01F0160E030117
:101A6400796FDEEC00F000C046F3170E0301796FC6
:101A7400DEEC00F000C06DF3C70E03016B6F190EAE
:101A84006C6F46C36EF3DBEC01F0BD0E030134252D
:101A9400296F190E35212A6F100E1E256B6F000E4B
:101AA4001F216C6F6D6B6E6BDBEC01F0010E03019B
:101AB4003415286F29C379F32AC37AF37B6B4BEC73
:101AC40000F0C90E03016B6F190E6C6FD10E6D6FB0
:101AD400190E6E6F285129256F6F000E2A21706F21
:101AE400716BF6EC00F0080E29256B6F000E2A21AD
:101AF4006C6F28516B27000E6C236D6B060E6E6F96
:101B0400DBEC01F00A0E030129256B6F000E2A217C
:101B14006C6F28516B27000E6C2336513125036EF0
:101B240037513221046E04C000F0016A00C06DF325
:101B340003C06EF3DBEC01F01EC36BF31FC36CF345
:101B44000301365131256D6F375132216E6F0C0E02
:101B54006D27000E6E2328516D27000E6E23E6ECD0
:101B640001F0160E0301796FDEEC00F000C046F3BD
:101B7400170E0301796FDEEC00F000C06DF3100E58
:101B840003011E256B6F000E1F216C6F46C36EF39D
:101B9400DBEC01F00E0E030134256B6F000E3521D2
:101BA4006C6F5AEC02F0385351E0100E2F6F000E98
:101BB400306F386B396B020E7C6F31511E257D6F8F
:101BC40032511F217E6F23EC00F00E0E03011A2503
:101BD400476F000E1B21486F1C5147271D51482396
:101BE4003151472732514823C2EC08F00201552BEA
:101BF400420E0301476F030E486F2DC349F32EC3F2
:101C04004AF32BC34BF32CC34CF30E0E0201AD5D10
:101C140003014D6F000E0201AE5903014E6F1C51BA
:101C24004D5F1D514E5B31514D5F32514E5BA00EE5
:101C34004F6F020E506FD5EC08F000C036F301C0B0
:101C440037F30201A0B101D0556B57D602015553A9
:101C540027E0030136513A25006E37513B21016ECE
:101C6400000E3C21026E000E3D21036E00C03AF3CB
:101C740001C03BF302C03CF303C03DF3110E2F6FD0
:101C8400000E306F0201556B0301396B140E316F76
:101C9400000E326F366B376B010E0201546F2DD676
:021CA40012002C
:101CA6001F0E0301796F010E7A6F6CEC00F01F0EA8
:101CB6000301796F020E7A6FC1EC00F0140E030176
:101CC600476F1AC348F3A3EC08F0120E0301796FAD
:101CD600010E7A6FC1EC00F099EC08F0120E796FE4
:101CE600010E7A6F6CEC00F0180E0301796FDEECD2
:101CF60000F01DC3E1FF1EC3E2FF00C0E6FF190EA0
:101D06000301796FDEEC00F01BC3E1FF1CC3E2FFA9
:061D160000C0E6FF120010
:101D1C001DC379F31EC37AF3A2EC00F000C028F3C4
:101D2C00CFEC04F000C027F3CFEC04F000C026F396
:101D3C00CFEC04F000C025F3000E0301261902E1DC
:101D4C00000E251901E18AD0CFEC04F000C02AF373
:101D5C00CFEC04F000C029F32B0E03015D6F030ED2
:101D6C005E6FC90E5F6F190E606F040E616F000E0F
:101D7C00626F91EC04F0020E7C6F080E1D257D6FD6
:101D8C00000E1E217E6F23EC00F00E0E03011A25AF
:101D9C00476F000E1B21486F1C514727000E48232C
:101DAC00080E4727000E4823C2EC08F0000E030172
:101DBC00281902E1350E271903E1BEEC09F04ED0CB
:101DCC00000E0301261902E1440E251903E151EC22
:101DDC000AF044D02B0E0301476F030E486F27C344
:101DEC0049F328C34AF325C34BF326C34CF3080E1F
:101DFC00295D4D6F000E2A594E6FA00E4F6F020ECB
:101E0C00506FBBEC09F000C029F301C02AF300505D
:101E1C00011024E01F0E5D6F030E5E6FB50E5F6F39
:101E2C00190E606F060E616F000E626F91EC04F07C
:101E3C001F0E5D6F030E5E6F2B0E5F6F030E606FD8
:101E4C0025C361F326C362F327C363F328C364F38A
:0E1E5C0029C365F32AC366F367EC03F0120096
:101E6A00C40E0301796F190E7A6FA2EC00F000C05C
:101E7A001AF3E8D0D50E0301476F190E486FA90E61
:101E8A00496F020E4A6F040E4B6F50EC08F0005077
:101E9A00000A4BE1C40E0301796F190E7A6F020E24
:101EAA007B6F4BEC00F009EC08F0CB0E6B6F190E50
:101EBA006C6FCF0E6D6F190E6E6FD50E6F6F190E98
:101ECA00706F716BF6EC00F0CB0E6B6F190E6C6FC6
:101EDA00A90E6D6F020E6E6F040E6F6F000E706F9B
:101EEA00AAEC01F0C50E6B6F190E6C6FCB0E6D6FFD
:101EFA00190E6E6FCF0E6F6F190E706F716BF6EC55
:101F0A0000F0C50E6B6F190E6C6F9A0E6D6F020E94
:101F1A006E6F060E6F6F000E706FAAEC01F03C0E2A
:101F2A006B6F000E6C6F5AEC02F095D00301AF0E86
:101F3A00476F190E486F9A0E496F020E4A6F060EC6
:101F4A004B6F50EC08F00050000A7BE1CB0E030106
:101F5A00476F190E486FFEC249F3FFC24AF3040ED7
:101F6A004B6F50EC08F00050000A6BE10F0E006E48
:101F7A00000E016E6DC204F0000E056E28EC08F02A
:101F8A00CD0E002403015D6F020E01205E6F090E63
:101F9A005D27000E5E23C50E5F6F190E606F060E79
:101FAA00616F000E626F91EC04F00F0E006E000E6E
:101FBA00016E6DC204F0000E056E28EC08F0CD0E1D
:101FCA0000246B6F020E01206C6F050E6B27000E4A
:101FDA006C23FEC26DF3FFC26EF3040E6F6F000E28
:101FEA00706F32EC02F00F0E006E000E016E6DC2C1
:101FFA0004F0000E056E28EC08F0CD0E0024E16E08
:10200A00020E0120E26E010EE66E0F0E006E000E49
:10201A00016E6DC204F0000E056E28EC08F0CD0EBC
:10202A000026020E0122010E0024E16E000E01209C
:10203A00E26E6EC2E6FF6FC2E6FF70C2E6FF71C2D1
:10204A00E6FF09D003011A51010AD8B413D71A516D
:08205A00020AD8B46BD7120092
:102062001F0E0301796F010E7A6F6CEC00F01F0EE8
:102072000301796F020E7A6FC1EC00F0140E0301B6
:10208200476F1AC348F3A3EC08F099EC08F0160E58
:10209200476F1CC348F3A3EC08F099EC08F0170E45
:1020A200476F1BC348F3A3EC08F099EC08F0120049
:1020B2000301476B0E5303E00D0E0F6F02D0050EA6
:1020C2000F6F0FC348F3A3EC08F0020E0301476F32
:1020D2000E5303E0310E106F02D0300E106F10C39A
:1020E20048F3A3EC08F00A0E03017C6FEE0E7D6F3D
:1020F200050E7E6F23EC00F0040E0301476F0E53B2
:1021020003E0150E116F02D0120E116F11C348F3C6
:10211200A3EC08F0060E0301476F120E486FA3EC02
:1021220008F003010E5306E1070E476F0C0E486FCD
:10213200A3EC08F003010E5306E1090E476F3F0EB0
:10214200486FA3EC08F01F0E0301796F010E7A6F3E
:10215200C1EC00F01F0E0301796F020E7A6FC1EC21
:1021620000F0040E0301476F9AC248F3A3EC08F093
:10217200050E0301476F9BC248F3A3EC08F0020E61
:102182000301476F9CC248F3A3EC08F0030E03015E
:10219200476F9DC248F3A3EC08F00301476B9EC250
:1021A20048F3A3EC08F0010E0301476F9FC248F306
:1021B200A3EC08F0150E0301476F486BA3EC08F07F
:1021C200120E0301796FDEEC00F000C081F2030110
:1021D2001A6B130E1B6F030E1C6F140E1D6F030E72
:1021E2001E6F60DD03011A6BFE0E13151B6F0E537B
:1021F20003E0010E126F01D0126B12511B1314C3B4
:102202001CF32EDF100E1A6F010E1B6F1C6B28DFE2
:102212001F0E796F040E7A6FC1EC00F099EC08F092
:10222200CD0E556F020E566F576B2D0E586F000E66
:10223200596FAAEC06F01F0E796F010E7A6F6CECE3
:1022420000F01F0E0301796F020E7A6F6CEC00F042
:02225200120078
:102254000301176B0201A081A0931F0E0301796F84
:10226400010E7A6F6CEC00F01F0E0301796F020E01
:102274007A6F6CEC00F003017C6B7AC27DF37BC255
:102284007EF323EC00F08B92B1C2E1FFB2C2E2FF15
:102294003A0EE66EAFC200F0B0C201F017EC00F0E7
:1022A400B1C2E1FFB2C2E2FFE66AAFC200F0B0C25F
:1022B40001F017EC00F000C07AF2B1C2E1FFB2C243
:1022C400E2FFE66AAFC200F0B0C201F017EC00F022
:1022D40000C07BF2B1C2E1FFB2C2E2FFE66AAFC264
:1022E40000F0B0C201F017EC00F000C0ADF2B1C2D2
:1022F400E1FFB2C2E2FFE66AAFC200F0B0C201F091
:1023040017EC00F000C0AEF2B1C2E1FFB2C2E2FFCE
:10231400E66AAFC200F0B0C201F017EC00F000C0F2
:1023240015F3B1C2E1FFB2C2E2FFE66AAFC200F048
:10233400B0C201F017EC00F000C016F38B82040E5B
:102344000201AD5F000EAE5B7B51190802E17A51C8
:10235400AD0810E37AB10ED0030116BF0BD0020111
:10236400AE51050802E1AD51EE0804E3030115AFD7
:1023740001D003D0010E006ED6D10301796BDEECDF
:1023840000F000C013F3010E0301796FDEEC00F0DE
:1023940000C014F313C36BF314C36CF30201AD5107
:1023A400030113256D6F0201AE51030114216E6FF9
:1023B400AF0E6F6F190E706F010E716FF6EC00F0B7
:1023C400BB0E796F190E7A6FA2EC00F000C016F301
:1023D400CFEC04F000C015F303011651080A02E122
:1023E400060E151911E1BD0E476F190E486F720ED6
:1023F400496F020E4A6F070E4B6F50EC08F0005005
:10240400000A01E130DD60D103011651080A02E13E
:10241400000E1519D8A455D1CD0E476F190E486F6B
:10242400FA0E496F020E4A6F040E4B6F50EC08F01F
:10243400005202E10201A083CD0E0301476F190E81
:10244400486F660E496F020E4A6F040E4B6F50ECD4
:1024540008F0005202E10201A083CD0E0301476F90
:10246400190E486FA90E496F020E4A6F040E4B6F86
:1024740050EC08F0005207E00201A0B304D0020EB1
:102484000301176F1DD10301BD0E796F190E7A6F09
:10249400A2EC00F0F00E0014016E0150400A04E0BA
:1024A400030E0301176F0CD10301BD0E796F190ED2
:1024B4007A6FA2EC00F000C011F3000E0301126F5A
:1024C4000F0E1117000E1217113711911237113711
:1024D40011911237C30E796F190E7A6FA2EC00F0C6
:1024E400BF0E0014016E0150000AD8A4E9D0C40E36
:1024F4000301796F190E7A6FA2EC00F00050000A04
:10250400D8A4DED0BD0E030111250F6F190E1221C0
:10251400106FC60E796F190E7A6FA2EC00F000C02E
:102524000EF30050010AD8A48CD00FC379F310C362
:102534007AF3A2EC00F00050080AD8A481D0010E6E
:1025440003010F25796F000E10217A6FA2EC00F0C1
:102554000050000A75E10FC379F310C37AF3030145
:102564007B6B4BEC00F009EC08F09CEC09F0C70E17
:102574006B6F190E6C6F6D6B6E6BDBEC01F0BD0E47
:1025840003016B6F190E6C6F11C36DF312C36EF3FD
:10259400E6EC01F0160E0301796FDEEC00F000C0EA
:1025A40018F3170E0301796FDEEC00F000C06DF331
:1025B400C70E03016B6F190E6C6F18C36EF3DBEC5F
:1025C40001F0020E03010F256B6F000E10216C6FDA
:1025D4006D6B6E6BDBEC01F00FC36BF310C36CF32C
:1025E400030111510201AD5D03016D6F125102012E
:1025F400AE5903016E6F0E0E6D5F000E6E5BE6EC5E
:1026040001F0160E0301796FDEEC00F000C018F340
:10261400170E0301796FDEEC00F000C06DF3020EBB
:1026240003010F256B6F000E10216C6F18C36EF33E
:10263400DBEC01F0ADC26BF3AEC26CF35AEC02F00A
:102644003FD003010E51110A0DE113C31AF314C351
:102654001BF311C31CF30FC31DF310C31EF38EEC45
:102664000EF02ED003010E51060A2AE1100E132596
:10267400796F000E14217A6FA2EC00F000C019F3F8
:102684000301186BCFEC04F000500301182502017C
:10269400AD6F000E030119210201AE6F0E0EAD27BE
:1026A400000EAE2313C31AF314C31BF311C31CF39C
:1026B40012C31DF30FC31EF310C31FF31AEC0BF068
:1026C40003D0040E0301176F03011E0E796F400E31
:1026D4007A6FC1EC00F0010E02017A5D016E000E0A
:1026E4007B59026E0250190802E10150AD080AE25A
:1026F4000C0E03017C6FAD0E7D6F190E7E6F23EC03
:1027040000F00FD00C0E03017C6F010E02017A5D04
:1027140003017D6F000E02017B5903017E6F23ECE0
:0827240000F017C300F01200E1
:10272C001C0E0201AF6F000EB06F7F0EB16F030E67
:10273C00B26FFF0E0301016FFF0E026FFF0E036FEE
:10274C00FF0E046F949A94969488C66A400EC76ED6
:04275C00C68A120017
:102760000900F5CFE6FF0006FBE10106F9E11200E2
:102770000301006B1F0E796F010E7A6FC1EC00F040
:102780001F0E0301796F020E7A6F6CEC00F0190EC8
:102790000301796FDEEC00F00050000803E25ADD1F
:1027A00000C000F31F0E0301796F010E7A6F6CEC0D
:1027B00000F01F0E0301796F020E7A6F6CEC00F0CF
:0627C00000C300F012004E
:1027C60094908B8094928B8299EC08F08B8099EC94
:1027D60008F08B9099EC08F08B8099EC08F08B92BE
:1027E600B1C2E1FFB2C2E2FFFF0EE66EAFC200F079
:1027F600B0C201F017EC00F08B8299EC08F09A0E4B
:102806006B6F020E6C6F09C36DF30AC36EF3060E8F
:102816006F6F000E706F32EC02F0A90E6B6F020E36
:102826006C6F0BC36DF30CC36EF3040E6F6F000E6B
:10283600706F32EC02F01F0E796F010E7A6F6CEC3E
:1028460000F01F0E0301796F020E7A6F6CEC00F038
:10285600080E03017C6F7D6B7E6B23EC00F00A0E85
:1028660003017C6FAD0E7D6F190E7E6F23EC00F0B9
:102876000C0E03017C6FAD0E7D6F190E7E6F23EC7F
:1028860000F003017C6B7D6B7E6B23EC00F0040E85
:1028960003017C6FAE0E7D6F190E7E6F23EC00F088
:1028A6001F0E0301796F010E7A6F6CEC00F01F0E9C
:1028B6000301796F020E7A6FC1EC00F00DC30EF3BF
:0628C60059EC10F01200B5
:1028CC00E1EC15F00F0EC112070EB412819093902B
:1028DC0027DF4E0E096F020E0A6F5E0E0B6F020E93
:1028EC000C6F010E0D6F69DF5A0E0301556F020E4E
:1028FC00566F560E576F020E586F620E596F020EBE
:0C290C005A6F79EC06F02EDFFED7FFD7E3
:102BC20010EE15F0680E006E030E016E180EF66E12
:0E2BD200290EF76E000EF86EB0EC13F0120034
:0829180023464646463030001C
:0829200023343937344532003D
:08292800233439373445320035
:08293000234646464630300004
:032938004F4E00FF
:06293B00474554202F0067
:102941003C68746D6C3E3C686561643E3C746974BE
:102951006C653E6D696B726F456C656B74726F6E01
:10296100696B613C2F7469746C653E3C2F686561CD
:10297100643E3C626F64793E3C683320616C6967F8
:102981006E3D63656E7465723E4D696B726F456C29
:10299100656B74726F6E696B6120486F6D65204164
:1029A10075746F6D6174697A6174696F6E205379A2
:1029B1007374656D3C2F68333E3C666F726D206E9B
:1029C100616D653D22696E70757422206163746961
:1029D1006F6E3D222F22206D6574686F643D226702
:1029E1006574223E3C7461626C6520616C69676E3E
:1029F1003D63656E7465722077696474683D323039
:102A010030206267636F6C6F723D23343937344510
:102A11003220626F726465723D323E3C74723E3C9C
:102A2100746420616C69676E3D63656E74657220C4
:102A3100636F6C7370616E3D323E3C666F6E7420E5
:102A410073697A653D3420636F6C6F723D77686995
:102A510074653E3C623E4865617420436F6E7472DA
:102A61006F6C3C2F623E3C2F666F6E743E3C2F7440
:102A7100643E3C2F74723E3C74723E3C746420612F
:102A81006C69676E3D63656E746572206267636F22
:102A91006C6F723D233439373445323E3C696E7078
:102AA1007574206E616D653D2274737431222077D7
:102AB100696474683D363020747970653D227375A0
:102AC100626D6974222076616C75653D224F4E22DC
:102AD1003E3C2F74643E3C746420616C69676E3DBA
:102AE10063656E746572206267636F6C6F723D23FC
:102AF1004646464630303E3C696E707574206E61C4
:102B01006D653D22747374322220747970653D22A3
:102B11007375626D6974222076616C75653D224F13
:102B21004646223E3C2F74643E3C2F74723E3C2F3D
:102B31007461626C653E3C2F666F726D3E3C2F6224
:0C2B41006F64793E3C2F68746D6C3E00A0
:042B4D004F464600A9
:062B51000014A576193FF7
:012B5700007D
:012B5800007C
:042B5900C0A801010E
:042B5D00FFFFFF0077
:042B6100C0A801C83F
:042B6500C0A8010102
:062B6900FFFFFFFFFFFF6C
:012B6F000065
:012B70000064
:042B71000000000060
:082B7500000108000604000045
:022B7D00000056
:012B7F000055
:102B8000485454502F312E3120323030204F4B0AD0
:0F2B9000436F6E74656E742D747970653A200012
:0C2B9F00010106001223344500008000F4
:0C2BAB00746578742F68746D6C0A0A0061
:062BB70063825363350147
:052BBD003703010306CF
:020000040030CA
:0D000100061F1EFF8181FF0FC00FE00F40A2
:00000001FF
