:02000000852D4C
:0E000600213083120313FD00FD0B07280800B4
:100014000F3083120313FC004730FD00FD0B102842
:0A002400FC0B10280000000008008B
:06002E00000000000800C4
:10003400FB14FB1F2428FF30F300F200F100F00052
:08004400FA0DF20CFF30080078
:10004C0083120313E11B2C2886132D288617611BA2
:10005C003128061332280617E11A3628861237285B
:10006C008616611A3B2806123C2806162F184028C3
:10007C00061541280611861517208611E119482806
:10008C0086134928861761194D2806134E28061722
:10009C00E118522886125328861661185728061222
:1000AC00582806162F185C2806155D28061186158B
:1000BC00172086112F1C64280A20652803200800AD
:1000CC007B15FB1F70280130F300F201F101F001E8
:0800DC00FA0DF20CFF300800E0
:0800E400FA1FF21300300800BE
:0E00EC00F201F101F001F801F301003008000B
:1000FA0083120313FB017308031D77080319D4281D
:10010A0072087606FA007708F3077E30031C9128F6
:10011A00F3020318D7289428F302031CDA2872087A
:10012A00F8007108FC007008FD00F817F6170310B4
:10013A00F201F101F0011830A0007D1CAE2874080C
:10014A00F00775080318750FF10776080318760F7C
:10015A00F207F20CF10CF00CF80CFC0CFD0C03107D
:10016A00A00BA228F21BBE28F80DF00DF10DF20D1E
:10017A00F3037B1B701CD028F81FD028F00A031940
:10018A00F10A0319F20A031DD028F20CF10CF00C43
:10019A00F30A0319D728FA1FF2130030DC280130BA
:1001AA007620DC2802301A20DC2804306620000081
:0201BA0008003B
:1001BC00831203132F105F08E10026202F14080070
:1001CC000E3083120313FD00FD0BEA28000008001B
:1001DC0083120313F801F9011030FC00710DF80DB6
:1001EC00F90D7408F8027508031C750FF902031851
:1001FC0006297408F80775080318750FF90703101A
:0A020C00F00DF10DFC0BF4280800C2
:10021600A0017208031D20297108F2007008F10080
:10022600F001A0157208031D20297108F200F101E2
:10023600A0112016720803192E292008F302031DA7
:10024600031C32290310F21B3629F00DF10DF20DB5
:10025600F30B262932290130FC0076203929023099
:0E026600FC00662039290430FC0072200800DC
:10027400831203135F08F2007208F100F20A6008A7
:10028400F000E00A700884000008F000710884009F
:1002940070088000710884000008031952293E295F
:0602A4005F08F0000800F5
:0602AA00FB15FF30080007
:1002B00083120313F8010830FC00700DF80D740868
:1002C000F80203186529F8070310F00DFC0B5D29EF
:0202D000080024
:1002D20083120313FA017308031D7A147708031DAE
:1002E200FA147A080319B529033A031980297A18EE
:1002F2007D29F61FB329B129F21FB129B32972084A
:100302008039FA00F21376088039F6137A06031957
:100312008E297A080319B129B329770873020319C0
:100322009529031CA929AD297608720203199C2973
:10033200031CA929AD29750871020319A329031CFD
:10034200A929AD29740870020319B5290318AD292A
:10035200FA080319B329B129FA080319B129B329F3
:100362000314080003100800031403150800080012
:0E037200831203132E088A002D088200080053
:1003800083120313DD01DE015208D9005308DA009D
:100390005408DB005508DC005C08FF3A031DDA292D
:1003A0005B08FF3A031DDA295A08FF3A031DDA29D0
:1003B0005908FF3A031DE4295608DF002130E00008
:1003C0003A210330F000B92B0130D700DB1FF329AD
:1003D00080305B06F0007008DB00D70A5608840006
:1003E0002D308000D60A0030F0005C06031D022A82
:1003F00070085B06031D022A70085A06031D022AB4
:100400005908003A031D0B2A5608DF002530E0008A
:100410003A21F001B92B5C08FF3A031D192A5B0849
:10042000003A031D192A5A08003A031D192A5908CF
:10043000003A031D232A5608DF002730E0003A2146
:100440005708F000B92B0030F4000030F500003000
:10045000F6007F30F7005908F0005A08F1005B08F9
:10046000F2005C08F3006921013003180030F0004D
:1004700070080319562A5908F0005A08F1005B0861
:10048000F2005C08F3000030F4000030F50020308A
:10049000F6008230F7007D207008D9007108DA007C
:1004A0007208DB007308DC00DE03232A0030F4004E
:1004B0000030F5002030F6008230F7005908F000D7
:1004C0005A08F1005B08F2005C08F3006921013072
:1004D000031C0030F00070080319892A5908F00045
:1004E0005A08F1005B08F2005C08F300CD30F4001C
:1004F000CC30F5004C30F6007B30F7007D207008E2
:10050000D9007108DA007208DB007308DC00DE0A2B
:10051000562AFF305905F800FF305A05F9007F30A0
:100520005B05FA0000305C05FB007808F4007908F0
:10053000F5007A08F6007B08F700F40DF50DF60DCE
:10054000F70D741000305905F00000305A05F10025
:1005500000305B05F200FF305C05F3007008D90045
:100560007108DA007208DB007308DC0074085904B3
:10057000F00075085A04F10076085B04F200770871
:100580005C04F3007008D9007108DA007208DB001F
:100590007308DC007F305C02F0007008D800013086
:1005A000DC007008F4005908F0005A08F1005B08FC
:1005B000F2005C08F30074080319E52AF00DF10D50
:1005C000F20DF30D7010FF3EDC2A7008D90071089F
:1005D000DA007208DB007308DC005C08303EF000D3
:1005E0005608840070088000D60A80305E06F0004D
:1005F0008030013A7002031C062B8030063AF0006E
:1006000080305E067002031C062B0D2B56088400FA
:100610002E308000D60A0130DD000630D8005808A0
:10062000003A03196B2BDC015908F0005A08F1005D
:100630005B08F2005C08F300F00DF10DF20DF30D14
:100640007010F00DF10DF20DF30D70105908F00758
:100650005A0803185A0FF1075B0803185B0FF207DB
:100660005C0803185C0FF3077008D9007108DA0002
:100670007208DB007308DC005908F0005A08F1002A
:100680005B08F2005C08F300F00DF10DF20DF30DC4
:1006900070107008D9007108DA007208DB00730866
:1006A000DC005C08303EF0005608840070088000D2
:1006B000D60A5D08003A031D692BDE035E08003A86
:1006C000031D692B560884002E308000D60A0130A5
:1006D000DD00D8030F2BFF30560784000008303AA6
:1006E000031D742BD6036B2BFF30560784000008C4
:1006F0002E3A031D7C2BD6035E08003A0319B52B56
:100700005608840065308000D60A80305E06F0000E
:100710008030003A70020318952B560884002D3063
:100720008000D60A5E08003CDE005E08D8005E0845
:10073000093C0318A72B0A30F4005808F000582190
:100740003030F0075608840070088000D60A0A305E
:10075000F4005808F00058217808F0003030F00715
:100760005608840070088000D60A5608840080016C
:04077000F00108008C
:10077400831203137008F8007108F000F101F2010C
:10078400F301FB01FC019630F300FA017008F1005B
:0C0794007808F000F801F2010B210800C9
:1007A000E22B803083120313D200F52BC030D2002D
:1007B000F52B9430D200F52BD430D200F52B8030BD
:1007C000D200F52B831203135208013A0319D12BDF
:1007D0005208023A0319D62B5208033A0319D92BAF
:1007E0005208043A0319DC2BDF2B5303F0005208A4
:1007F000F0077008D2007008E10026202F10D50104
:10080000550854078400000803190E2C5508540796
:1008100084000008DF00DE20D50A002C2F14080019
:10082000B9218A110A128000840AAD0A0319AE0A9E
:08083000F003031D102C080069
:1008380083120313D5010530550203182A2C5508D5
:100848005407840020308000D50A1F2C550854070F
:1008580084008001D50355085407D6000A30F400F7
:10086800F5015208F0005308F100EE207808F00076
:100878007908F1003030F0075608840070088000CD
:100888000A30F400F5015208F0005308F100EE2098
:100898007008D2007108D30000307106031D562C71
:1008A80000307006031D592C5B2CD5032F2C080033
:1008B800831203137408003A031D772C7508003A55
:1008C800031D772C7608003A031D772C7708003A29
:1008D800031D772CFF30F000FF30F1007F30F2006D
:1008E800FF30F300122D8312031377080319062D26
:1008F80073080319092D720876068039FA00F21771
:10090800F617A0017208F8007108FC007008FD00D5
:100918007408FD027508031C750FFC027608031C99
:10092800760FF802F801FC01FD01031CA22C03104C
:10093800F20CF10CF00CF80C0130A0007708F3026F
:10094800031CAC2C7E302007F30703180C2DB12CA8
:100958007E302007F307031C0F2D1830FA07FD0D12
:10096800FC0DF80DF00DF10DF20DA00D7408F0025C
:100978007508031C750FF1027608031C760FF20246
:10098800760DA004201CCA2C7D14D52C7408F00701
:1009980075080318750FF10776080318760AF20729
:1009A8007D10FA031F307A05031DB32C7B1B7D1CB9
:1009B800FC2C0310F00DF10DF20DA00D7408F002DF
:1009C8007508031C750FF1027608031C760FF202F6
:1009D800760D20040139FD070318FC0A0319F80AEB
:1009E800031DFC2CF80CFC0CFD0CF30A03190C2D50
:1009F800FA1FF8137808F2007C08F1007D08F0006F
:100A08000030112D01305521112D02307620112D85
:0E0A180004301A20112D08306620000008005E
:100A26008316031386110611061286120613861301
:100A360083128611061186130613861206120A20E1
:100A46000A200A20861606168615172086110A2001
:100A56008615172086110A208615172086110A206A
:100A660006128615172086110A208615172086116C
:100A7600861286178615172086110A2086130616F3
:100A860086151720861106128615172086110A204C
:100A960086151720861106168615172086110A2038
:100AA600061286151720861186170617861606164D
:0C0AB6008615172086110A202F14080056
:100AC200831203139F01C0309F0483161F179F17C1
:100AD20083125208F000F00D7010F00D7010F00D3E
:100AE200701070089F041F14E6201F151F1D7B2D18
:100AF2000000772D1F101E08F100F00183161E085A
:080B0200F0040030F1040800CA
:100B0A000A2613250130E10026200C30E1002620B8
:100B1A0083169F0107308312D20061257008831261
:100B2A00AB007108AC007008F2007108F300F30C16
:100B3A00F20CF3137208AB007308AC007208D2000F
:100B4A007308D3003430D4001C240130D2000130A1
:100B5A00D3003430D400D023D2016125BA237008DF
:100B6A00B0007108B1007208B2007308B300003017
:100B7A00F4000030F5002030F6008130F7007D20C7
:100B8A000030F400C030F5007F30F6008830F700FE
:100B9A005C247008B0007108B1007208B2007308D2
:100BAA00B3007008D2007108D3007208D400730829
:100BBA00D5004330D600C0210230D2000130D30024
:100BCA004330D400D0230B30FB002630FC005D30CC
:100BDA00FD00FD0BEE2DFC0BEE2DFB0BEE2D0000A8
:0C0BEA0000000130E10026208F2DFA2DC4
:100C1400213084000A3083120313F0000030AD0049
:080C24000630AE0010240800A8
:080C00004E3461344E3400341F
:040C08003034003450
:080C0C0049344E344634003433
:02400E004A2F37
:00000001FF
