:1000000037EF14F00000000000EF00F000000000E7
:0A0010000000000000000000F3D71C
:10001C0079C3C9FFC7B002D00000FCD7C9CF00F02C
:02002C001200C0
:10002E00F250026EF29E0500FF6A0150FE6E005005
:08003E00FD6E02BEF28E1200FD
:100046008B92400E03017611006ED8C2E1FFD9C231
:10005600E2FF00C0E6FFD6C200F0D7C201F0E4DF3F
:10006600D8C2E1FFD9C2E2FF77C3E6FFD6C200F0ED
:10007600D7C201F0D9DFD8C2E1FFD9C2E2FF78C307
:10008600E6FFD6C200F0D7C201F0CEDF8B821200A7
:10009600020E0301766F73C377F374C378F3D0DF70
:1000A6008B92D8C2E1FFD9C2E2FF7A0EE66ED6C2C3
:1000B60000F0D7C201F0B8DFD8C2E1FFD9C2E2FF33
:1000C60075C3E6FFD6C200F0D7C201F0ADDF8B8262
:0200D600120016
:1000D8008B92A00E03017311006ED8C2E1FFD9C242
:1000E800E2FF00C0E6FFD6C200F0D7C201F09BDFF6
:1000F800D8C2E1FFD9C2E2FF74C3E6FFD6C200F05E
:0A010800D7C201F090DF8B821200D5
:100112008B92D8C2E1FFD9C2E2FF7A0EE66ED6C256
:1001220000F0D7C201F082DFD8C2E1FFD9C2E2FFFC
:1001320073C3E6FFD6C200F0D7C201F077DF8B822D
:020142001200A9
:100144000301766B73C377F374C378F37ADF8B920E
:10015400D8C2E1FFD9C2E2FF3A0EE66ED6C200F081
:10016400D7C201F062DFD8C2E1FFD9C2E2FFE66A7A
:0E017400D6C200F0D7C201F058DF8B82120015
:100182008B92800E03017311006ED8C2E1FFD9C2B7
:10019200E2FF00C0E6FFD6C200F0D7C201F046DFA0
:1001A200D8C2E1FFD9C2E2FF74C3E6FFD6C200F0B3
:0A01B200D7C201F03BDF8B82120080
:1001BC008B92D8C2E1FFD9C2E2FF73C3E6FFD6C26D
:1001CC0000F0D7C201F02DDFD8C2E1FFD9C2E2FFA7
:1001DC00E66AD6C200F0D7C201F023DF8B82120090
:1001EC000301726B010E6B5F000E6C5B6F530DE0C5
:1001FC006C51190802E16B51AD0807E2722BAD0E80
:10020C006B5D706F190E6C59716F725305E0AD0E0A
:10021C00016E190E026E04D06BC301F06CC302F0B8
:10022C006A51021802E1015069190DE169C373F3B7
:10023C006AC374F381DF00C075F36DC373F36EC3CF
:10024C0074F323DF36D0100E0301766F69C377F396
:10025C006AC378F3F2DE120E0301766F725305E077
:10026C00AD0E006E190E016E04D06BC300F06CC3A2
:10027C0001F000C077F301C078F3DFDE140E030148
:10028C00766F6DC377F36EC378F3D7DE1F0E030161
:10029C00736F100E746F1ADF1F0E0301736F200E35
:1002AC00746F69DF1F0E0301736F82DF00AA01D028
:1002BC00F9D7030172531AE069516B5D006E6A51F4
:1002CC006C59016E7051005E7151015A004A012A3D
:1002DC0000506D2701506E23010E705D6B6F000E88
:0E02EC0071596C6F696B6A6B726B8FD7120061
:1002FA008B92D8C2E1FFD9C2E2FF7A0EE66ED6C26D
:10030A0000F0D7C201F08EDE6BC300F06CC301F0BF
:10031A00010E03016B5F000E6C5B0050011013E0CD
:10032A00D8C2E1FFD9C2E2FF69C3E9FF6AC3EAFFA3
:10033A00EECFE6FFD6C200F0D7C201F073DE0301AA
:0A034A00694B6A2BE1D78B82120089
:10035400020E0301766F69C377F36AC378F371DE23
:100364008B92D8C2E1FFD9C2E2FF7A0EE66ED6C202
:1003740000F0D7C201F059DE03016D516E1117E090
:10038400D8C2E1FFD9C2E2FF6BC3E9FF6CC3EAFF45
:10039400EECFE6FFD6C200F0D7C201F046DE03017D
:1003A4006B4B6C2B010E6D5F000E6E5BE5D78B8281
:0203B400120035
:1003B60069C373F36AC374F36BC375F369DE6CC305
:0603C60073F3A4DE120037
:1003CC0003016B5169256D6F6C516A216E6F010EC3
:1003DC006D5F000E6E5B100E766F69C377F36AC3A8
:1003EC0078F32BDE120E0301766F6DC377F36EC3B9
:1003FC0078F323DE1F0E0301736F300E746FBBDEB8
:10040C001F0E0301736FD4DE00AA01D0F9D71200BE
:10041C008B92D8C2E1FFD9C2E2FF7A0EE66ED6C249
:10042C0000F0D7C201F0FDDDD8C2E1FFD9C2E2FF76
:10043C006AC3E6FFD6C200F0D7C201F0F2DDD8C223
:10044C00E1FFD9C2E2FF69C3E6FFD6C200F0D7C212
:08045C0001F0E7DD8B821200C4
:100464006BC304F06CC305F069C302F06AC303F004
:100474006DC300F06EC301F0010E03016D5F000E49
:100484006E5B005001100FE004C0E9FF05C0EAFFF5
:1004940002C0E1FF03C0E2FFEECFE6FF024A032AF7
:1004A400044A052AE5D769C300F06AC301F01200C3
:1004B400AE0E0301736F190E746F756BEADDAE0E29
:1004C40003016925006E190E6A21016E00C069F3EB
:1004D40001C06AF3060E766F00C077F301C078F3AB
:1004E400B0DD1F0E0301736F800E746F48DE1F0EA4
:1004F4000301736F800E746FEDDD02018751050AED
:1005040004E08751070A01E006D01C0E0301736F53
:100514000A0E746FDFDD1F0E0301736F080E746F14
:100524002EDE02018751050A04E08751070A01E023
:1005340080D003016D6B6E6B1C0E736F3DDE0A0E73
:10054400001600520AE103016D4B6E2B030E6E5D23
:1005540002E1E80E6D5D01E2EFD703011C0E736F3B
:100564002BDE00B208D0030E03016E5D02E1E80E3B
:100574006D5D01E25DD003011F0E736F080E746F91
:10058400A9DD040E03016925736F000E6A21746FDF
:10059400D7DD00C06CF303016B6B100E6B5D48E29A
:1005A4001C0E736F09DE00A23FD003016CAB3CD07C
:1005B4001F0E736F800E746FE2DD1F0E0301736FE5
:1005C400800E746F87DD1C0E0301736F0A0E746F47
:1005D40081DD1F0E0301736F080E746FD0DD0301FC
:1005E4006D6B6E6B1C0E736FE7DD0A0E0016005206
:1005F4000AE103016D4B6E2B030E6E5D02E1E80E02
:100604006D5D01E2EFD703011F0E736F080E746F67
:1006140061DD040E03016925736F000E6A21746F96
:100624008FDD00C06CF301D003D003016B2BB5D771
:1006340007D003011F0E736FBFDD00A601D0F9D7E9
:100644001D0E0301736FB8DD060E0016005202E0A2
:0A065400006A02D0010E006E1200D1
:10065E005BC369F35CC36AF3EC0E03016B6F020EAE
:10066E006C6F040E6D6F000E6E6FF5DE5D6B5D517F
:10067E00030821E35D515B25026E000E5C21036EC3
:10068E0002C0E9FF03C0EAFFEECF01F0E80EE96E0B
:10069E00020EEA6E5D51E926D8B0EA2AFF0EEE1878
:1006AE00006E0150001202C0E1FF03C0E2FF00C065
:0806BE00E6FF5D2BDCD7120002
:1006C600AF0E0301696F190E6A6F5BC36BF35CC3F0
:1006D6006CF3060E6D6F000E6E6F39DE810E696F5C
:1006E600020E6A6F060E6B6F000E6C6F03DE000E55
:1006F600696F080E6A6F8FDE1C0E03016325666F35
:10070600000E6421676F000E696F450E6A6F83DE07
:1007160066C369F367C36AF37EDEDEC269F3DFC2CE
:100726006AF379DE0201DE4BDF2B0301696B6A6B2C
:1007360072DE110E0301696F800E6A6F6CDE0301B3
:10074600696B6A6B68DEEC0E0301696F020E6A6FF5
:10075600040E6B6F000E6C6FCDDD5DC369F35EC377
:100766006AF3040E6B6F000E6C6FC4DD080E632512
:10077600666F000E6421676F5FC369F360C36AF337
:100786004ADE61C369F362C36AF345DE66C369F391
:1007960067C36AF340DE0301696B6A6B3CDEBD0E1C
:1007A6000301696F190E6A6F140E6B6F000E6C6F82
:1007B6000ADE160E0301736FFEDC00C068F3170E27
:1007C6000301736FF8DC00C06BF3C70E0301696F9A
:1007D600190E6A6F68C36CF3EBDD010E0301661533
:1007E600656FD90E6325736F190E6421746F756B6F
:1007F6004FDCC90E0301696F190E6A6FD10E6B6F5C
:10080600190E6C6FD90E63256D6F190E64216E6F0C
:1008160065516D27000E6E236F6BE5DCD90E6325DF
:10082600696F190E64216A6F65516927000E6A2384
:10083600080E6927000E6A236B6B110E6C6FB8DD0C
:1008460067C373F363DC66C373F360DCD10E030125
:10085600696F190E6A6F0C0E66256B6F000E6721A5
:100866006C6F65516B27000E6C23ADDD160E030110
:10087600736FA1DC00C068F3170E0301736F9BDC76
:1008860000C06BF3D70E0301696F190E6A6F68C358
:100896006CF38EDD2A0E03016325696F000E642159
:0608A6006A6F05DE12007E
:1008AC008B92D8C2E1FFD9C2E2FF7A0EE66ED6C2B5
:1008BC0000F0D7C201F017EC00F05EC300F05FC38C
:1008CC0001F0010E03015E5F000E5F5B0050011032
:1008DC001CE0D8C2E1FFD9C2E2FF5BC3F6FF5CC3E8
:1008EC00F7FF5DC3F8FF0900F5CF00F000C0E6FF8D
:1008FC00D6C200F0D7C201F017EC00F0010E0301D4
:0E090C005B27000E5C235D23D8D78B82120080
:10091A0003015E51FF0A02E1FF0E5D1907E0766BE3
:10092A005DC377F35EC378F323EC00F08B92D8C2F1
:10093A00E1FFD9C2E2FF3A0EE66ED6C200F0D7C294
:10094A0001F017EC00F05FC300F060C301F0010E84
:10095A0003015F5F000E605B0050011015E0D8C212
:10096A00E1FFD9C2E2FFE66AD6C200F0D7C201F0BF
:10097A0017EC00F05BC3E1FF5CC3E2FF00C0E6FFD7
:0C098A0003015B4B5C2BDFD78B8212005B
:100996008B92D8C2E1FFD9C2E2FF3A0EE66ED6C20A
:1009A60000F0D7C201F017EC00F0D8C2E1FFD9C2BF
:1009B600E2FFE66AD6C200F0D7C201F017EC00F0FB
:0409C6008B8212000E
:1009CA005FC301F060C302F0010E03015F5F000E16
:1009DA00605B000E021802E1000E011825E05BC3FD
:1009EA00E9FF5CC3EAFFEECF01F05DC3D9FF5EC346
:1009FA00DAFF0150DE1813E05BC3E9FF5CC3EAFFCC
:100A0A00EECF01F05DC3E9FF5EC3EAFFEECF00F06F
:100A1A000050015C006E016A000E015A07D05B4B60
:0E0A2A005C2B5D4B5E2BCCD7006A016A12007C
:100A3800E80E0301696F020E6A6F53C36BF354C368
:100A48006CF3040E6D6F000E6E6F08DD900E696F0B
:100A5800020E6A6F55C36BF356C36CF3040E6D6FC9
:100A6800000E6E6FFBDC9A0E696F020E6A6F57C339
:100A78006BF358C36CF3040E6D6F000E6E6FEEDCF3
:0C0A8800960E5B6F020E5C6FE6DD120044
:100A9400060E0C6E2B0E0D6E0D2EFED70C2EFCD7F3
:020AA40012003E
:100AA6000301556B3C0E046F000E056F066F076F52
:100AB6006FDF00C053F30050020AD8A418D1030117
:100AC600546B0F0E545D04E263DF0301542BF9D718
:100AD6007D0E5B6F020E5C6FFF0E5D6FFF0E5E6F2D
:100AE600040E5F6F000E606F15DF546B080E545DC9
:100AF60004E24EDF0301542BF9D7546B060E545D06
:100B060012E246DF00C053F3810ED96E020EDA6E92
:100B160003015451D926D8B0DA2A0050DE1801E074
:100B260011D1542BEBD7546BCE0E545D04E230DF5B
:100B36000301542BF9D7566B2BDF00C053F3B8D003
:100B460027DF00C053F30050010A04E121DF00C093
:100B560055F301D0F7D0C7D01BDF00C053F30050C8
:100B6600040A0FE1A20E03015B6F020E5C6FFF0E1B
:100B76005D6FFF0E5E6F040E5F6F000E606FCADE64
:100B860001D0E0D0B0D004DF00C053F3040E005C07
:100B96000FE39E0E03015B6F020E5C6FFF0E5D6F2F
:100BA600FF0E5E6F040E5F6F000E606FB3DE01D046
:100BB600C9D00301040E535F030153C300F053076A
:100BC600005202E0E5DEF8D78ED0E2DE00C053F335
:100BD600040E005C0FE38C0E03015B6F020E5C6F6C
:100BE600FF0E5D6FFF0E5E6F040E5F6F000E606F8F
:100BF60091DE01D0A7D00301040E535F030153C356
:100C060000F05307005202E0C3DEF8D76CD0C0DE16
:100C160000C053F30050040A0FE1570E03015B6F47
:100C2600030E5C6FFF0E5D6FFF0E5E6F040E5F6F4F
:100C3600000E606F6FDE01D085D055D00301010E26
:100C4600566F51D0A5DE00C053F30050040A22E1CE
:100C5600040E03015B6F030E5C6FFF0E5D6FFF0EEC
:100C66005E6F040E5F6F000E606F54DE0751000862
:100C760008E10651000805E10551070802E10451A3
:100C8600080807E2080E045F070E055B000E065B08
:100C9600075B01D057D027D07BDE00C053F353C388
:100CA60000F003015307005202E072DEF8D71BD0B2
:100CB60003015351350AD8B443D75351010AD8B466
:100CC6004BD75351030AD8B45ED75351060AD8B44A
:100CD6007CD75351360A9BE05351FF0AAFE053517C
:100CE600330AB0E0D9D703015653D8B425D7030148
:100CF6005551020A0FE1880E696F020E6A6F570E90
:100D06006B6F030E6C6F040E6D6F000E6E6F32EC20
:100D160002F015D0880E5B6F020E5C6F570E5D6F8A
:100D2600030E5E6F040E5F6F000E606F4BDE000EEB
:100D3600011802E1000E001802E00301556B55C3CD
:080D460000F001D0006A120068
:100D4E0053C302F054C303F056C300F057C301F06F
:100D5E00010E0301565F000E575B0050011009E0B3
:100D6E0002C0E1FF03C0E2FF55C3E6FF024A032AB9
:0C0D7E00EBD753C300F054C301F0120087
:100D8A00F90E0301566F000E576F020E766FD90ED9
:100D9A00776F190E786F23EC00F0430E03015B6F37
:100DAA002B0E5C6F000E5D6F0C0E5E6F000E5F6F98
:100DBA0078DD5351030A0DE154530BE07D0E696F40
:100DCA00020E6A6F040E6B6F000E6C6F7DEC01F001
:100DDA000AD0556B040E555D06E2736B89EC00F080
:100DEA000301552BF7D7556B0C0E555D06E2736B55
:100DFA0089EC00F00301552BF7D7810E696F020EBB
:100E0A006A6F060E6B6F000E6C6F7DEC01F0556B0E
:100E1A00CA0E555D06E2736B89EC00F00301552B8F
:100E2A00F7D75B0E5B6F2B0E5C6F000E5D6F060EC5
:100E3A005E6F000E5F6F35DD53C373F389EC00F00C
:100E4A0003015351030A1AE1545318E1360E736F22
:100E5A0089EC00F0040E0301736F89EC00F0880E30
:100E6A000301696F020E6A6F040E6B6F000E6C6FDE
:100E7A007DEC01F0060E5627000E5723610E5B6FBC
:100E8A002B0E5C6F000E5D6F050E5E6F000E5F6FBE
:100E9A0008DD5351030A23E1545321E1320E736FE3
:100EAA0089EC00F0040E0301736F89EC00F0030172
:100EBA00556B040E555D0FE27D0EE96E020EEA6E69
:100ECA005551E926D8B0EA2AEECF73F389EC00F03F
:100EDA000301552BEED7060E5627000E5723FF0E99
:100EEA00736F89EC00F0150E03015B6F000E5C6FE7
:100EFA00150E5D6F000E5E6F440E5F6F000E606F21
:100F0A00430E616F000E626F56C363F357C364F3F7
:060F1A0063EC03F012007D
:100F20000301576B586B8B92D8C2E1FFD9C2E2FF25
:100F30007A0EE66ED6C200F0D7C201F017EC00F0D0
:100F400053C300F054C301F055C302F0010E030176
:100F50005327000E5423552300C0F6FF01C0F7FFAE
:100F600002C0F8FF0900F5CF00F000C056F30052B0
:100F700010E0D8C2E1FFD9C2E2FF56C3E6FFD6C2F5
:100F800000F0D7C201F017EC00F00301574B582BCB
:0E0F9000D7D78B8257C300F058C301F0120070
:100F9E000301566B576B8B92D8C2E1FFD9C2E2FFA9
:100FAE007A0EE66ED6C200F0D7C201F017EC00F052
:100FBE0053C300F054C301F00301534B542B00C034
:100FCE00E9FF01C0EAFFEECF00F000C055F300527A
:100FDE0010E0D8C2E1FFD9C2E2FF55C3E6FFD6C288
:100FEE0000F0D7C201F017EC00F00301564B572B5F
:0E0FFE00DFD78B8256C300F057C301F01200FC
:10100C0003014651190802E14551AD0804E2AE0E48
:10101C00455F190E465B766B45C377F346C378F391
:06102C0023EC00F01200AD
:101032000B6A0A6A096A00500402F4CF09F0F3CF7E
:1010420008F001500502F4CF0BF0F3CF0AF0005084
:101052000502F3500926F4500A22E86A0B220150D5
:101062000402F3500926F4500A22E86A0B2208C04F
:1010720000F009C001F00AC002F00BC003F0120038
:10108200B50E0301696F190E6A6FBB0E6B6F190EF5
:101092006C6FAF0E6D6F190E6E6F6F6BF6EC00F02A
:1010A200B50E696F190E6A6F810E6B6F020E6C6F4F
:0E10B200060E6D6F000E6E6FAAEC01F01200BC
:1010C0000301736BDEEC00F000C04AF3010E030174
:1010D000736FDEEC00F000C04BF30301766B45C389
:1010E00077F346C378F323EC00F08B92D8C2E1FF8C
:1010F000D9C2E2FF3A0EE66ED6C200F0D7C201F0C6
:1011000017EC00F00301495318E0D8C2E1FFD9C23F
:10111000E2FFE66AD6C200F0D7C201F017EC00F099
:1011200047C3D9FF48C3DAFF0050DE1801E005D0FD
:101130000301474B482B4907E5D703018B82766BA8
:101140004AC377F34BC378F323EC00F049C300F0B4
:0211500012008B
:101152008B92400E03014511006ED8C2E1FFD9C245
:10116200E2FF00C0E6FFD6C200F0D7C201F017ECE2
:1011720000F0D8C2E1FFD9C2E2FF46C3E6FFD6C201
:0E11820000F0D7C201F017EC00F08B821200D3
:101190000301456BC80E455D04E27CDC7BDC452B1E
:0411A000F9D7120069
:1011A400000E03014A1902E1500E491903E0006AD6
:1011B400016ABCD04F6B506B000E505D02E10F0E04
:1011C4004F5D12E2F00E4F25516F020E5021526F07
:1011D400CBEC04F051C3E1FF52C3E2FF00C0E6FFD1
:1011E40003014F4B502BE8D7F00E4F25E16E020E52
:1011F4005021E26EE66AF00E5B6F020E5C6F710EB8
:101204005D6F020E5E6F050E5F6F000E606FE5ECA2
:1012140004F00050011003E0006A016A87D0FB0E5D
:1012240003015B6F020E5C6F3D0E5D6F000E5E6F1F
:10123400020E5F6F000E606FE5EC04F000500110C9
:1012440002E1818013D0FB0E03015B6F020E5C6F21
:10125400310E5D6F000E5E6F030E5F6F000E606FE8
:10126400E5EC04F000500110D8B4819081A01ED0A8
:10127400940E0301696F010E6A6F5C0E6B6F020EB0
:101284006C6F060E6D6F000E6E6F32EC02F0EF0E97
:10129400696F010E6A6F540E6B6F020E6C6F060E4F
:1012A4006D6F000E6E6F32EC02F01DD00301940ED0
:1012B400696F010E6A6F4C0E6B6F020E6C6F060E37
:1012C4006D6F000E6E6F32EC02F0EF0E696F010E5F
:1012D4006A6F1B0E6B6F000E6C6F060E6D6F000E47
:1012E4006E6F32EC02F0240E536F2B0E546F000E0F
:1012F400556F14DE00C04FF301C050F34F0E536F0F
:101304002B0E546F000E556F09DE00504F2701500D
:101314005023400E536F000E546F3FDE4F51002692
:0E1324005051012200C04FF301C050F31200DF
:10133200C90E0301696F190E6A6FCD0E6B6F190E1C
:101342006C6FCD0E6D6F190E6E6F6F6BF6EC00F059
:10135200C90E696F190E6A6FEC0E6B6F020E6C6F1D
:0E136200040E6D6F000E6E6FAAEC01F012000B
:06137000006A016A120090
:10137600CBEC04F0CBEC04F0CBEC04F000C046F36D
:10138600CBEC04F000C045F3CBEC04F000C048F30E
:10139600CBEC04F000C047F3CBEC04F000C04AF3FA
:1013A600CBEC04F000C049F3CBEC04F0CBEC04F03A
:1013B600CBEC04F0CBEC04F047C300F048C301F0DB
:1013C600010E0301475F000E485B005001100EE05E
:1013D600CBEC04F0005201E0FBD7CBEC04F0CBECF5
:1013E60004F0CBEC04F0CBEC04F0E6D749C300F0F4
:1013F6004AC301F0010E0301495F000E4A5B00502B
:10140600011048E0CBEC04F0CBEC04F0CBEC04F09C
:1014160000C04EF3CBEC04F000C04DF3CBEC04F06F
:10142600CBEC04F0CBEC04F0CBEC04F0CBEC04F00A
:10143600CBEC04F0CBEC04F000C04CF3CBEC04F0A6
:1014460000C04BF3000E03014E1902E1010E4D19C7
:1014560011E1CBEC04F000C0E4F2CBEC04F000C0E8
:10146600E5F2CBEC04F000C0E6F2CBEC04F000C0F1
:10147600E7F210D04BC300F04CC301F0010E03019C
:101486004B5F000E4C5B0050011003E0CBEC04F008
:06149600F1D7ACD71200F3
:10149C00B5D0EC0E0301536F020E546F556B040E56
:1014AC00566F000E576F4DDC010E536F546B67DC9B
:1014BC0064C2E0F265C2E1F266C2E2F267C2E3F234
:1014CC00030E02017B6FADD0050EE025016E000E00
:1014DC00E121026E000EE221036E000EE321046E88
:1014EC006751045C08E16651035C05E16551025CDF
:1014FC0002E16451015C02E2020E7B6F53EC05F0D9
:10150C000050020A04E1040E02017B6F01D089D065
:10151C00030E0301536F7CC254F331DC64C2E0F25E
:10152C0065C2E1F266C2E2F267C2E3F2050E0201A5
:10153C007B6F77D053EC05F000C045F30050060AE2
:10154C0004E1040E02017B6F2FD003014551050A03
:10155C002BE164C2E0F265C2E1F266C2E2F267C25C
:10156C00E3F2060E02017B6FEC0E0301696F020EB3
:10157C006A6F7D0E6B6F020E6C6F040E6D6F000E3A
:10158C006E6F32EC02F0A20E536F020E546F9E0E71
:10159C00556F020E566F8C0E576F020E586F1CEC67
:1015AC0005F002017C6B3DD03CD00201010EE02520
:1015BC00016E000EE121026E000EE221036E000EA0
:1015CC00E321046E0450675D08E10350665D05E19C
:1015DC000250655D02E10150645D0FE3010E0301F1
:1015EC00045F000E055B065B075B64C2E0F265C23C
:1015FC00E1F266C2E2F267C2E3F213D002017B5160
:10160C00020AD8B446D77B51030AD8B45DD77B51B4
:10161C00040AD8B47DD77B51050A8CE07B51060AAD
:04162C00C4E0120004
:101630001BC373F31CC374F3A2EC00F000C026F3C9
:10164000CBEC04F000C025F3CBEC04F000C024F395
:10165000CBEC04F000C023F3000E0301241902E1D7
:10166000000E231901E186D0CBEC04F000C028F372
:10167000CBEC04F000C027F3290E03015B6F030ECF
:101680005C6FC90E5D6F190E5E6F040E5F6F000E0A
:10169000606F8DEC04F0020E766F080E1B25776FDD
:1016A000000E1C21786F23EC00F00E0E03011825AC
:1016B000456F000E1921466F1A514527000E46232B
:1016C000080E4527000E4623A1DC000E0301261953
:1016D00002E1350E251902E14EDE4CD0000E030169
:1016E000241902E1440E231902E1D8DE43D0290E69
:1016F0000301456F030E466F25C347F326C348F326
:1017000023C349F324C34AF3080E275D4B6F000E31
:1017100028594C6FD50E4D6F020E4E6F29DE00C05A
:1017200027F301C028F30050011024E01D0E5B6F69
:10173000030E5C6FB50E5D6F190E5E6F060E5F6F68
:10174000000E606F8DEC04F01D0E5B6F030E5C6F7E
:10175000290E5D6F030E5E6F23C35FF324C360F336
:1017600025C361F326C362F327C363F328C364F37D
:0617700063EC03F012001F
:101776001CC373F31DC374F3A2EC00F000C02CF37A
:10178600CBEC04F000C02BF3CBEC04F000C02AF342
:10179600CBEC04F000C029F30301316B366B010E6C
:1017A600376F346B356B0C0E1C25736F000E1D21C5
:1017B600746FA2EC00F000C02FF3000E0301306F2F
:1017C6002F332F9F2F332F9F000E306FFC0E2F17B6
:1017D600FF0E3017400E5B6F030E5C6FC90E5D6F18
:1017E600190E5E6F040E5F6F000E606F8DEC04F0D5
:1017F6000D0E1C25736F000E1D21746FA2EC00F0F8
:101806003F0E001403012D6F2E6B000E2E17000ED7
:101816002E6F0E0E0201D35D0301326F000E020120
:10182600D4590301336F1A51325F1B51335B2F5169
:10183600325F3051335B020E1C25736F000E1D2183
:10184600746FA2EC00F000C075F31CC373F31DC3E4
:1018560074F34BEC00F0030E03011C25736F000EAE
:101866001D21746FA2EC00F000C073F389EC00F048
:101876002BC369F32CC36AF30EEC02F0040E0301CA
:101886001C25736F000E1D21746FA2EC00F000C0C2
:101896003BF3CBEC04F000C03AF3CBEC04F000C011
:1018A60039F3CBEC04F000C038F3CBEC04F000C005
:1018B6003FF3CBEC04F000C03EF3CBEC04F000C0E9
:1018C6003DF3CBEC04F000C03CF3000E03012E19EF
:1018D60002E1020E2D193DE1010E3825006E000EC3
:1018E6003921016E000E3A21026E000E3B21036E75
:1018F60000C03CF301C03DF302C03EF303C03FF31A
:10190600120E2D6F000E2E6F0C0E736FDEEC00F0B4
:1019160000C038F30D0E0301736FDEEC00F000C05B
:1019260039F30301736BDEEC00F000C03AF3010EED
:101936000301736FDEEC00F000C03BF30301312BB3
:10194600180E2F6F000E306F346B356B0201786BFB
:1019560070D0000E03012E1902E1180E2D192FE189
:1019660038C31EF339C31FF33AC320F33BC321F335
:101976003CC338F33DC339F33EC33AF33FC33BF3AD
:1019860032511E25006E33511F21016E000E20219B
:10199600026E000E2121036E00C03CF301C03DF330
:1019A60002C03EF303C03FF3100E2D6F000E2E6FE4
:1019B600312B140E2F6F000E306F362B3AD0000EDF
:1019C6002E1902E1110E2D1934E138C322F339C361
:1019D60023F33AC324F33BC325F33CC338F33DC397
:1019E60039F33EC33AF33FC33BF3010E2225006EA3
:1019F600000E2321016E000E2421026E000E252109
:101A0600036E00C03CF301C03DF302C03EF303C0C9
:101A16003FF3100E2D6F000E2E6F312B140E2F6F0D
:101A2600000E306F346B356B0201775302E1782B71
:101A3600776B03013153D8B4C8D10301040E1C25BA
:101A4600696F000E1D216A6F3BC36BF33AC36CF3DB
:101A5600DBEC01F039C373F389EC00F038C373F3A0
:101A660089EC00F03FC373F389EC00F03EC373F3D7
:101A760089EC00F03DC373F389EC00F03CC373F3CB
:101A860089EC00F00C0E03011C25736F000E1D215E
:101A9600746FA2EC00F00F0E00140301756F2FC3D4
:101AA60000F00036009000360090005075130C0EC2
:101AB6001C25736F000E1D21746F4BEC00F00D0E8C
:101AC60003011C25736F000E1D21746FA2EC00F03C
:101AD600C00E00140301756F2D5175130D0E1C25D4
:101AE600736F000E1D21746F4BEC00F0000E0301A6
:101AF6002E1902E1120E2D1916E1140E1C25696F1E
:101B0600000E1D216A6F020E6B6F040E6C6FDBEC0C
:101B160001F0050E0301736F89EC00F0780E0301E6
:101B2600736F89EC00F003011A513425326F1B5193
:101B36003521336F2F51322730513323375304E089
:101B460041EC08F099EC09F0BF0E696F190E6A6F47
:101B560033C36BF332C36CF3DBEC01F0C70E030146
:101B6600696F190E6A6F6B6B6C6BDBEC01F0BD0E67
:101B76000301696F190E6A6F1AC36BF31BC36CF30B
:101B8600E6EC01F0160E0301736FDEEC00F000C008
:101B960044F3170E0301736FDEEC00F000C06BF325
:101BA600C70E0301696F190E6A6F44C36CF3DBEC51
:101BB60001F0BD0E03013225276F190E3321286F60
:101BC600100E1C25696F000E1D216A6F6B6B6C6B06
:101BD600DBEC01F0010E03013215266F27C373F308
:101BE60028C374F3756B4BEC00F0C90E0301696FE3
:101BF600190E6A6FD10E6B6F190E6C6F2651272561
:101C06006D6F000E28216E6F6F6BF6EC00F0080EFC
:101C16002725696F000E28216A6F26516927000E55
:101C26006A236B6B060E6C6FDBEC01F00A0E030188
:101C36002725696F000E28216A6F26516927000E35
:101C46006A2334512F25036E35513021046E04C0AA
:101C560000F0016A00C06BF303C06CF3DBEC01F02B
:101C66001CC369F31DC36AF3030134512F256B6F3F
:101C7600355130216C6F0C0E6B27000E6C232651EC
:101C86006B27000E6C23E6EC01F0160E0301736F52
:101C9600DEEC00F000C044F3170E0301736FDEECB8
:101CA60000F000C06BF3100E03011C25696F000ED7
:101CB6001D216A6F44C36CF3DBEC01F00E0E0301C9
:101CC6003225696F000E33216A6F5AEC02F0030168
:101CD600365351E0100E2D6F000E2E6F366B376B9C
:101CE600020E766F2F511C25776F30511D21786FAC
:101CF60023EC00F00E0E03011825456F000E192186
:101D0600466F1A5145271B5146232F5145273051FF
:101D1600462306EC08F00201782B400E0301456FBE
:101D2600030E466F2BC347F32CC348F329C349F36D
:101D36002AC34AF30E0E0201D35D03014B6F000E58
:101D46000201D45903014C6F1A514B5F1B514C5B76
:101D56002F514B5F30514C5BD50E4D6F020E4E6FBF
:101D6600D2EC08F000C034F301C035F30201D5B15E
:101D760001D0786B62D60201785327E00301345113
:101D86003825006E35513921016E000E3A21026E5A
:101D9600000E3B21036E00C038F301C039F302C0C8
:101DA6003AF303C03BF3110E2D6F000E2E6F0201A6
:101DB600786B0301376B140E2F6F000E306F346B88
:0C1DC600356B010E0201776F38D6120059
:101DD2001F0E0301736F010E746F6CEC00F01F0E87
:101DE2000301736F020E746FC1EC00F0140E030155
:101DF200456F18C346F3A9EC08F0120E0301736F86
:101E0200010E746FC1EC00F0C8EC08F0120E736F93
:101E1200010E746F6CEC00F0160E0301736FDEECB2
:101E220000F01BC3E1FF1CC3E2FF00C0E6FF170E78
:101E32000301736FDEEC00F019C3E1FF1AC3E2FF86
:061E420000C0E6FF1200E3
:101E48001F0E0301736F010E746F6CEC00F01F0E10
:101E58000301736F020E746FC1EC00F0140E0301DE
:101E6800456F18C346F3A9EC08F0C8EC08F0160E45
:101E7800456F1AC346F3A9EC08F0C8EC08F0170E32
:101E8800456F19C346F3A9EC08F0C8EC08F0120036
:101E9800C40E0301736F190E746FA2EC00F000C03A
:101EA80018F3E8D0D50E0301456F190E466FEC0EF6
:101EB800476F020E486F040E496F60EC08F000503F
:101EC800000A4BE1C40E0301736F190E746F020E02
:101ED800756F4BEC00F041EC08F0CB0E696F190EF2
:101EE8006A6FCF0E6B6F190E6C6FD50E6D6F190E72
:101EF8006E6F6F6BF6EC00F0CB0E696F190E6A6FA0
:101F0800EC0E6B6F020E6C6F040E6D6F000E6E6F31
:101F1800AAEC01F0C50E696F190E6A6FCB0E6B6FD4
:101F2800190E6C6FCF0E6D6F190E6E6F6F6BF6EC2E
:101F380000F0C50E696F190E6A6F810E6B6F020E85
:101F48006C6F060E6D6F000E6E6FAAEC01F03C0E02
:101F5800696F000E6A6F5AEC02F095D0AF0E03015C
:101F6800456F190E466F810E476F020E486F060EB9
:101F7800496F60EC08F00050000A7BE1CB0E0301CA
:101F8800456F190E466F94C247F395C248F3040E85
:101F9800496F60EC08F00050000A6BE10F0E006E0C
:101FA800000E016E70C204F0000E056E19EC08F008
:101FB800A60E002403015B6F020E01205C6F090E60
:101FC8005B27000E5C23C50E5D6F190E5E6F060E53
:101FD8005F6F000E606F8DEC04F00F0E006E000E48
:101FE800016E70C204F0000E056E19EC08F0A60E22
:101FF8000024696F020E01206A6F050E6927000E22
:102008006A2394C26BF395C26CF3040E6D6F000ED5
:102018006E6F32EC02F00F0E006E000E016E70C291
:1020280004F0000E056E19EC08F0A60E0024E16E0F
:10203800020E0120E26E010EE66E0F0E006E000E1B
:10204800016E70C204F0000E056E19EC08F0A60EC1
:102058000026020E0122010E0024E16E000E01206E
:10206800E26E64C2E6FF65C2E6FF66C2E6FF67C2CB
:10207800E6FF09D003011851010AD8B413D7185143
:08208800020AD8B46BD7120064
:102090000301456B0D5303E00D0E006E02D0050EDB
:1020A000006E00C046F3A9EC08F0020E0301456F74
:1020B0000D5303E0310E006E02D0300E006E00C0F2
:1020C00046F3A9EC08F00A0E0301766FEE0E776F67
:1020D000050E786F23EC00F0040E0301456F0D53DD
:1020E00003E0150E006E02D0120E006E00C046F323
:1020F000A9EC08F0060E0301456F120E466FA9EC1D
:1021000008F003010D5306E1070E456F0C0E466FF4
:10211000A9EC08F003010D5306E1090E456F3F0ECF
:10212000466FA9EC08F01F0E0301736F010E746F68
:10213000C1EC00F01F0E0301736F020E746FC1EC4F
:1021400000F0040E0301456F81C246F3A9EC08F0CC
:10215000050E0301456F82C246F3A9EC08F0020E9A
:102160000301456F83C246F3A9EC08F0030E030197
:10217000456F84C246F3A9EC08F00301456B85C2A4
:1021800046F3A9EC08F0010E0301456F86C246F341
:10219000A9EC08F0150E0301456F466BA9EC08F099
:1021A000120E0301736FDEEC00F000C087F2030132
:1021B000186B0E0E196F030E1A6F0F0E1B6F030EA6
:1021C0001C6F07DE0301186BFE0E0E15196F0D5301
:1021D00003E0010E006E01D0006A005019130FC316
:1021E0001AF332DE100E186F010E196F1A6B2CDE07
:1021F0001F0E736F040E746FC1EC00F0C8EC08F092
:10220000A60E536F020E546F556B2D0E566F000EB7
:10221000576FA7EC06F01F0E736F010E746F6CEC16
:1022200000F01F0E0301736F020E746F6CEC00F070
:0222300012009A
:102232000301166B0201D581D5931F0E0301736F43
:10224200010E746F6CEC00F01F0E0301736F020E2F
:10225200746F6CEC00F00301766B79C277F37AC28B
:1022620078F323EC00F08B92D8C2E1FFD9C2E2FFEF
:102272003A0EE66ED6C200F0D7C201F017EC00F0BB
:10228200D8C2E1FFD9C2E2FFE66AD6C200F0D7C2E5
:1022920001F017EC00F000C079F2D8C2E1FFD9C218
:1022A200E2FFE66AD6C200F0D7C201F017EC00F0F6
:1022B20000C07AF2D8C2E1FFD9C2E2FFE66AD6C212
:1022C20000F0D7C201F017EC00F000C0D3F2D8C280
:1022D200E1FFD9C2E2FFE66AD6C200F0D7C201F03E
:1022E20017EC00F000C0D4F2D8C2E1FFD9C2E2FF7D
:1022F200E66AD6C200F0D7C201F017EC00F000C0C7
:1023020014F3D8C2E1FFD9C2E2FFE66AD6C200F0F6
:10231200D7C201F017EC00F000C015F38B82040E57
:102322000201D35F000ED45B7A51190802E17951A0
:10233200AD0810E379B10ED0030115BF0BD0020135
:10234200D451050802E1D351EE0804E3030114AFAE
:1023520001D003D0010E006EBAD10301736BDEEC23
:1023620000F000C012F3010E0301736FDEEC00F007
:1023720000C013F312C369F313C36AF30201D3510A
:10238200030112256B6F0201D451030113216C6FFB
:10239200AF0E6D6F190E6E6F010E6F6FF6EC00F0DF
:1023A200BB0E736F190E746FA2EC00F000C015F330
:1023B200CBEC04F000C014F303011551080A02E14A
:1023C200060E141911E1BD0E456F190E466F350E3A
:1023D200476F000E486F070E496F60EC08F000501F
:1023E200000A01E158DD44D103011551080A02E156
:1023F200000E1419D8A439D1CD0E456F190E466FAF
:10240200960E476F020E486F040E496F60EC08F09B
:10241200005202E10201D583CD0E0301456F190E70
:10242200466F150E476F000E486F040E496F60EC41
:1024320008F0005202E10201D583CD0E0301456F7F
:10244200190E466FEC0E476F020E486F040E496F6D
:1024520060EC08F0005207E00201D5B304D0020E8E
:102462000301166F01D10301BD0E736F190E746F54
:10247200A2EC00F0F00E0014016E0150400A04E0DC
:10248200030E0301166FF0D00301BD0E736F190E18
:10249200746FA2EC00F000C010F3000E0301116F84
:1024A2000F0E1017000E1117103710911137103739
:1024B20010911137C30E736F190E746FA2EC00F0F6
:1024C200BF0E0014016E0150000AD8A4CDD0C40E74
:1024D2000301736F190E746FA2EC00F00050000A32
:1024E200D8A4C2D0BD0E030110250E6F190E112102
:1024F2000F6FC60E736F190E746FA2EC00F000C05E
:102502000DF30050010AD8A48CD00EC373F30FC38D
:1025120074F3A2EC00F00050080AD8A481D0010E96
:1025220003010E25736F000E0F21746FA2EC00F0F1
:102532000050000A75E10EC373F30FC374F3030175
:10254200756B4BEC00F041EC08F099EC09F0C70E0A
:10255200696F190E6A6F6B6B6C6BDBEC01F0BD0E71
:102562000301696F190E6A6F10C36BF311C36CF329
:10257200E6EC01F0160E0301736FDEEC00F000C012
:1025820017F3170E0301736FDEEC00F000C06BF35C
:10259200C70E0301696F190E6A6F17C36CF3DBEC88
:1025A20001F0020E03010E25696F000E0F216A6F02
:1025B2006B6B6C6BDBEC01F00EC369F30FC36AF358
:1025C200030110510201D35D03016B6F115102012E
:1025D200D45903016C6F0E0E6B5F000E6C5BE6EC60
:1025E20001F0160E0301736FDEEC00F000C017F36A
:1025F200170E0301736FDEEC00F000C06BF3020EE6
:1026020003010E25696F000E0F216A6F17C36CF369
:10261200DBEC01F0D3C269F3D4C26AF35AEC02F0E4
:1026220023D003010D51110A0DE112C318F313C394
:1026320019F310C31AF30EC31BF30FC31CF318ECE8
:102642000BF012D003010D51060A0EE112C318F36A
:1026520013C319F310C31AF311C31BF30EC31CF3F4
:102662000FC31DF3BBEC0BF003D0040E0301166F76
:1026720003011E0E736F400E746FC1EC00F0010E69
:102682000201795D016E000E7A59026E025019083C
:1026920002E10150AD080AE20C0E0301766FAD0EA5
:1026A200776F190E786F23EC00F00FD00C0E030138
:1026B200766F010E0201795D0301776F000E020150
:1026C2007A590301786F23EC00F016C300F0120070
:1026D2001C0E0201D66F000ED76F790ED86F030E53
:1026E200D96FFF0EDA6FFF0EDB6FFF0EDC6FFF0E8E
:1026F200DD6F949A94969488C66A400EC76EC68A15
:022702001200C3
:102704000900F5CFE6FF0006FBE10106F9E112003E
:102714000301086B1F0E736F010E746FC1EC00F0A0
:102724001F0E0301736F020E746F6CEC00F0190E30
:102734000301736FDEEC00F00050000803E277DD64
:1027440000C008F31F0E0301736F010E746F6CEC6D
:1027540000F01F0E0301736F020E746F6CEC00F037
:0627640008C300F01200A2
:10276A0094908B8094928B82C8EC08F08B80C8EC92
:10277A0008F08B90C8EC08F08B80C8EC08F08B92BC
:10278A00D8C2E1FFD9C2E2FFFF0EE66ED6C200F060
:10279A00D7C201F017EC00F08B82C8EC08F0810E6A
:1027AA00696F020E6A6F08C36BF309C36CF3060EF6
:1027BA006D6F000E6E6F32EC02F0EC0E696F020E56
:1027CA006A6F0AC36BF30BC36CF3040E6D6F000ED2
:1027DA006E6F32EC02F01F0E736F010E746F6CECA9
:1027EA0000F01F0E0301736F020E746F6CEC00F0A1
:1027FA00080E0301766F776B786B23EC00F00A0EF4
:10280A000301766FAD0E776F190E786F23EC00F027
:10281A000C0E0301766FAD0E776F190E786F23ECED
:10282A0000F00301766B776B786B23EC00F0040EF3
:10283A000301766FAE0E776F190E786F23EC00F0F6
:10284A001F0E0301736F010E746F6CEC00F01F0E04
:10285A000301736F020E746FC1EC00F00CC30DF329
:04286A0012DC12006A
:10286E00B3EC15F00F0EC112070EB41281909390B7
:10287E0029DF2B0E0301086F000E096F270E0A6F5A
:10288E00000E0B6F010E0C6F69DF230E0301536FE9
:10289E00000E546F6C0E556F020E566F680E576F0A
:0E28AE00020E586F1CEC05F02EDFFED7FFD790
:102B660010EE15F0680E006E030E016EBC0EF66ECA
:0E2B7600280EF76E000EF86E82EC13F01200BF
:0628BC00FFFFFFFFFFFF1C
:0828C200234646464630300073
:0428CA00FFFFFF000D
:0428CE00C0A8143C4E
:0628D2000014A576193F79
:0428D8004F46460021
:0828DC000001080006040000E1
:0328E4004F4E0054
:1028E7003C68746D6C3E3C686561643E3C74697419
:1028F7006C653E6D696B726F456C656B74726F6E5C
:10290700696B613C2F7469746C653E3C2F68656127
:10291700643E3C626F64793E3C683320616C696752
:102927006E3D63656E7465723E4D696B726F456C83
:10293700656B74726F6E696B6120486F6D652041BE
:1029470075746F6D6174697A6174696F6E205379FC
:102957007374656D3C2F68333E3C666F726D206EF5
:10296700616D653D22696E707574222061637469BB
:102977006F6E3D222F22206D6574686F643D22675C
:102987006574223E3C7461626C6520616C69676E98
:102997003D63656E7465722077696474683D323093
:1029A70030206267636F6C6F723D2334393734456B
:1029B7003220626F726465723D323E3C74723E3CF7
:1029C700746420616C69676E3D63656E746572201F
:1029D700636F6C7370616E3D323E3C666F6E742040
:1029E70073697A653D3420636F6C6F723D776869F0
:1029F70074653E3C623E4865617420436F6E747235
:102A07006F6C3C2F623E3C2F666F6E743E3C2F749A
:102A1700643E3C2F74723E3C74723E3C7464206189
:102A27006C69676E3D63656E746572206267636F7C
:102A37006C6F723D233439373445323E3C696E70D2
:102A47007574206E616D653D227473743122207731
:102A5700696474683D363020747970653D227375FA
:102A6700626D6974222076616C75653D224F4E2236
:102A77003E3C2F74643E3C746420616C69676E3D14
:102A870063656E746572206267636F6C6F723D2356
:102A97004646464630303E3C696E707574206E611E
:102AA7006D653D22747374322220747970653D22FE
:102AB7007375626D6974222076616C75653D224F6E
:102AC7004646223E3C2F74643E3C2F74723E3C2F98
:102AD7007461626C653E3C2F666F726D3E3C2F627F
:0C2AE7006F64793E3C2F68746D6C3E00FB
:082AF300233439373445320069
:082AFB00233439373445320061
:082B030023464646463030002F
:042B0B0000000000C6
:042B0F00C0A8140145
:042B1300C0A814063C
:012B170000BD
:062B1800474554202F0088
:012B1E0000B6
:012B1F0000B5
:022B20000000B3
:012B220000B2
:012B230000B1
:102B2400485454502F312E3120323030204F4B0A2C
:0F2B3400436F6E74656E742D747970653A20006E
:0C2B430001010600122334450000800050
:0C2B4F00746578742F68746D6C0A0A00BD
:062B5B00638253633501A3
:052B610037030103062B
:020000040030CA
:0D000100061F1EFF8181FF0FC00FE00F40A2
:00000001FF
