:02000000282DA9
:0E000600213083120313FD00FD0B07280800B4
:06001400000000000800DE
:10001A000F3083120313FC004730FD00FD0B132839
:0A002A00FC0B132800000000080082
:0E003400F201F101F001F801F30100300800C3
:1000420083120313D01B2728861328288617501BD8
:100052002C2806132D280617D01A3128861232288A
:100062008616501A362806123728061640183B28DC
:1000720006153C28061186150A208611D019432838
:10008200861344288617501948280613492806174C
:10009200D0184D2886124E2886165018522806125D
:1000A2005328061640185728061558280611861593
:1000B2000A208611401C5F280D20602803200800BA
:0800C200FA1FF21300300800E0
:1000CA007B15FB1F6F280130F300F201F101F001EB
:0800DA00FA0DF20CFF300800E2
:1000E200FB14FB1F7B28FF30F300F200F100F0004D
:0800F200FA0DF20CFF300800CA
:1000FA00A0017208031D92287108F2007008F1002D
:10010A00F001A0157208031D92287108F200F1018E
:10011A00A011201672080319A0282008F302031D53
:10012A00031CA4280310F21BA828F00DF10DF20DF0
:10013A00F30B9828A4280130FC001A20AB280230BF
:0E014A00FC006520AB280430FC00612008009A
:100158000E3083120313FD00FD0BB02800000800C9
:06016800FB15FF3008004A
:10016E00831203134E08F2007208F100F20A4F08D0
:10017E00F000CF0A700884000008F00071088400B7
:10018E00700880007108840000080319CF28BB286E
:06019E004E08F00008000D
:1001A40083120313F8010830FC00700DF80D740875
:1001B400F8020318DF28F8070310F00DFC0BD7280A
:0201C400080031
:1001C60083120313FA017308031D7A147708031DBB
:1001D600FA147A0803192F29033A0319FA287A1808
:1001E600F728F61F2D292B29F21F2B292D297208F6
:1001F6008039FA00F21376088039F6137A06031965
:1002060008297A0803192B292D297708730203195F
:100216000F29031C23292729760872020319162998
:10022600031C232927297508710203191D29031C9C
:10023600232927297408700203192F29031827294F
:10024600FA0803192D292B29FA0803192B292D2918
:10025600031408000310080003140315080008001F
:1002660083120313FB017308031D770803198A29F8
:1002760072087606FA007708F3077E30031C4729D2
:10028600F30203188D294A29F302031C90297208E8
:10029600F8007108FC007008FD00F817F617031047
:1002A600F201F101F0011830A0007D1C64297408E8
:1002B600F00775080318750FF10776080318760F0F
:1002C600F207F20CF10CF00CF80CFC0CFD0C031010
:1002D600A00B5829F21B7429F80DF00DF10DF20D43
:1002E600F3037B1B701C8629F81F8629F00A031965
:1002F600F10A0319F20A031D8629F20CF10CF00C1F
:10030600F30A03198D29FA1FF213003092290130DE
:100316001A209229023071209229043065200000AB
:020326000800CD
:100328008312031340104E08D00021204014080007
:0E0338008312031330088A002F088200080089
:10034600831203137408003A031DBE297508003A88
:10035600031DBE297608003A031DBE297708003A18
:10036600031DBE29FF30F000FF30F1007F30F200A0
:10037600FF30F300592A83120313770803194D2A15
:1003860073080319502A720876068039FA00F217A4
:10039600F617A0017208F8007108FC007008FD004D
:1003A6007408FD027508031C750FFC027608031C11
:1003B600760FF802F801FC01FD01031CE929031080
:1003C600F20CF10CF00CF80C0130A0007708F302E7
:1003D600031CF3297E302007F3070318532AF82954
:1003E6007E302007F307031C562A1830FA07FD0D46
:1003F600FC0DF80DF00DF10DF20DA00D7408F002D4
:100406007508031C750FF1027608031C760FF202BD
:10041600760DA004201C112A7D141C2A7408F007EE
:1004260075080318750FF10776080318760AF207A0
:100436007D10FA031F307A05031DFA297B1B7D1CEC
:10044600432A0310F00DF10DF20DA00D7408F00211
:100456007508031C750FF1027608031C760FF2026D
:10046600760D20040139FD070318FC0A0319F80A62
:10047600031D432AF80CFC0CFD0CF30A0319532A3E
:10048600FA1FF8137808F2007C08F1007D08F000E6
:100496000030582A0130B420582A02301A20582A2F
:0E04A60004307120582A08306520000008003C
:1004B4009C218A110A128000840AAF0A0319B00A27
:0804C400F003031D5A2A080091
:1004CC0083120313CC01CD014108C8004208C900B6
:1004DC004308CA004408CB004B08FF3A031D802A8E
:1004EC004A08FF3A031D802A4908FF3A031D802A57
:1004FC004808FF3A031D8A2A4508CE002530CF0054
:10050C00B7200330F0005F2C0130C600CA1F992AB7
:10051C0080304A06F0007008CA00C60A45088400FC
:10052C002D308000C50A0030F0004B06031DA82AB0
:10053C0070084A06031DA82A70084906031DA82A3C
:10054C004808003A031DB12A4508CE002930CF00D7
:10055C00B720F0015F2C4B08FF3A031DBF2A4A0855
:10056C00003A031DBF2A4908003A031DBF2A480858
:10057C00003A031DC92A4508CE002130CF00B72010
:10058C004608F0005F2C0030F4000030F50000301D
:10059C00F6007F30F7004808F0004908F1004A08DF
:1005AC00F2004B08F300E320013003180030F00098
:1005BC0070080319FC2A4808F0004908F1004A08A1
:1005CC00F2004B08F3000030F4000030F50020304E
:1005DC00F6008230F70033217008C8007108C9009A
:1005EC007208CA007308CB00CD03C92A0030F4008E
:1005FC000030F5002030F6008230F7004808F0009B
:10060C004908F1004A08F2004B08F300E3200130DE
:10061C00031C0030F000700803192F2B4808F00061
:10062C004908F1004A08F2004B08F300CD30F40001
:10063C00CC30F5004C30F6007B30F70033217008DD
:10064C00C8007108C9007208CA007308CB00CD0A33
:10065C00FC2AFF304805F800FF304905F9007F30CF
:10066C004A05FA0000304B05FB007808F4007908C5
:10067C00F5007A08F6007B08F700F40DF50DF60D81
:10068C00F70D741000304805F00000304905F100FA
:10069C0000304A05F200FF304B05F3007008C8002B
:1006AC007108C9007208CA007308CB0074084804AA
:1006BC00F00075084904F10076084A04F200770846
:1006CC004B04F3007008C8007108C9007208CA0016
:1006DC007308CB007F304B02F0007008C70001306C
:1006EC00CB007008F4004808F0004908F1004A08F3
:1006FC00F2004B08F300740803198B2BF00DF10D6D
:10070C00F20DF30D7010FF3E822B7008C8007108BB
:10071C00C9007208CA007308CB004B08303EF000C9
:10072C004508840070088000C50A80304D06F00032
:10073C008030013A7002031CAC2B8030063AF0007A
:10074C0080304D067002031CAC2BB32B4508840083
:10075C002E308000C50A0130CC000630C700470897
:10076C00003A0319112CCB014808F0004908F1009C
:10077C004A08F2004B08F300F00DF10DF20DF30DE9
:10078C007010F00DF10DF20DF30D70104808F0071C
:10079C0049080318490FF1074A0803184A0FF207D2
:1007AC004B0803184B0FF3077008C8007108C900F9
:1007BC007208CA007308CB004808F0004908F10021
:1007CC004A08F2004B08F300F00DF10DF20DF30D99
:1007DC0070107008C8007108C9007208CA0073084C
:1007EC00CB004B08303EF0004508840070088000B8
:1007FC00C50A4C08003A031D0F2CCD034D08003AD6
:10080C00031D0F2C450884002E308000C50A0130D2
:10081C00CC00C703B52BFF30450784000008303AE5
:10082C00031D1A2CC503112CFF304507840000084A
:10083C002E3A031D222CC5034D08003A03195B2CDC
:10084C004508840065308000C50A80304D06F000F4
:10085C008030003A700203183B2C450884002D3080
:10086C008000C50A4D08003CCD004D08C7004D085E
:10087C00093C03184D2C0A30F4004708F000D22034
:10088C003030F0074508840070088000C50A0A3033
:10089C00F4004708F000D2207808F0003030F00760
:1008AC004508840070088000C50A45088400800152
:0408BC00F00108003F
:1008C000722C803083120313C100852CC030C1000C
:1008D000852C9430C100852CD430C100852C80300B
:1008E000C100852C831203134108013A0319612CBE
:1008F0004108023A0319662C4108033A0319692C8E
:100900004108043A03196C2C6F2C4203F000410893
:10091000F0077008C1007008D00021204010C40109
:10092000440843078400000803199E2C4408430729
:1009300084000008CE009421C40A902C40140800C2
:10094000831203137008F8007108F000F101F2013E
:10095000F301FB01FC019630F300FA017008F1008D
:0C0960007808F000F801F2017D2008008A
:10096C0083160313861106110612861206138613BC
:10097C0083128611061186130613861206120D2099
:10098C000D200D208616061686150A2086110D20C0
:10099C0086150A2086110D2086150A2086110D2039
:1009AC00061286150A2086110D2086150A2086113E
:1009BC008612861786150A2086110D2086130616B8
:1009CC0086150A208611061286150A2086110D201E
:1009DC0086150A208611061686150A2086110D200A
:1009EC00061286150A208611861706178616061615
:0C09FC0086150A2086110D20401408000A
:100A0800831203139F01C0309F0483161F179F177B
:100A180083124108F000F00D7010F00D7010F00D09
:100A2800701070089F041F14AC201F151F1D1E2D69
:100A380000001A2D1F101E08F100F00183161E0871
:080A4800F0040030F104080085
:100A50008E25B6240130D00021200C30D00021207A
:100A600083169F018312C1010425A0247008AB00E6
:100A70007108AC007208AD007308AE000030F400DD
:100A80000030F5002030F6008130F70033210030CF
:100A9000F400C030F5007F30F6008830F700A32165
:100AA0007008AB007108AC007208AD007308AE00AE
:100AB0007008C1007108C2007208C3007308C40046
:100AC0003130C5006622B5010130C1000130C200DD
:100AD0003130C30060240B30FB002630FC005D3059
:100AE000FD00FD0B712DFC0B712DFB0B712D00001A
:0C0AF00000000130D0002120322D7D2DAF
:100B1C00213084000A3083120313F0008330AF00BD
:080B2C000530B0005A22080058
:080B060049344E34463400343A
:080B0E004E3461344E34003412
:040B16003034003443
:02400E004A2F37
:00000001FF
