:020000008C2949
:06000600000000000800EC
:10000C000F3083120313FC004730FD00FD0B0C284E
:0A001C00FC0B0C2800000000080097
:0E002600213083120313FD00FD0B1728080084
:1000340083120313BA1B20288613212886173A1B20
:100044002528061326280617BA1A2A2886122B28CA
:1000540086163A1A2F280612302806162418342831
:10006400061535280611861503208611BA193C2871
:1000740086133D2886173A19412806134228061785
:10008400BA1846288612472886163A184B280612AC
:100094004C280616241850280615512806118615D2
:1000A40003208611241C58280620592813200800F0
:1000B4000E3083120313FD00FD0B5E2800000800C0
:1000C40083120313F801F9011030FC00710DF80DCF
:1000D400F90D7408F8027508031C750FF90203186A
:1000E4007A287408F80775080318750FF9070310C0
:0A00F400F00DF10DFC0B6828080068
:1000FE008312031324103908BA001A20241408009E
:0E010E008312031323088A00220882000800CF
:10011C00A028803083120313B400B328C030B4007D
:10012C00B3289430B400B328D430B400B328803052
:10013C00B400B328831203133408013A03198F282F
:10014C003408023A031994283408033A03199728FF
:10015C003408043A03199A289D283503F000340812
:10016C00F0077008B4007008BA001A202410B70108
:10017C0037083607840000080319CC2837083607DF
:10018C0084000008B9007F20B70ABE282414080098
:10019C0083120313B701053037020318DC28370824
:1001AC003607840020308000B70AD128370836077C
:1001BC0084008001B70337083607B8000A30F40012
:1001CC00F5013408F0003508F10062207808F000E1
:1001DC007908F1003030F00738088400700880008E
:1001EC000A30F400F5013408F0003508F100622003
:1001FC007008B4007108B50000307106031D0829A1
:10020C0000307006031D0B290D29B703E1280800E7
:10021C0087208A110A128000840AA20A0319A30AF1
:08022C00F003031D0E29080078
:1002340083160313861106110612861206138613FB
:1002440083128611061186130613861206120620DF
:10025400062006208616061686150320861106201B
:100264008615032086110620861503208611062094
:100274000612861503208611062086150320861192
:100284008612861786150320861106208613061605
:100294008615032086110612861503208611062072
:1002A400861503208611061686150320861106205E
:1002B400061286150320861186170617861606165B
:0C02C40086150320861106202414080073
:1002D000831203139F01C0309F0483161F179F17BB
:1002E00083123408F000F00D7010F00D7010F00D56
:1002F000701070089F041F145A201F151F1D82299B
:1003000000007E291F101E08F100F00183161E0850
:08031000F0040030F1040800C4
:100318001A210130BA001A200C30BA001A208316AC
:100328009F0107308312B400682170088312A0006F
:100338007108A1007008F2007108F300F30CF20CC8
:10034800F3137208A0007308A1007208B4007308C0
:10035800B5002530B600CE200130B4000130B5001C
:0A0368002530B6008E209529B82933
:02400E004A2F37
:00000001FF
