:02000000802B53
:10000600831203132818092809100A280914281826
:100016000E2889100F288914281813280911142866
:1000260009152818182888121928881628181D282E
:1000360008131E2808172818222808102328081431
:100046002818272888102828881428182C280811EA
:100056002D280815281831288811322888152818BF
:10006600362808123728081628183B2807103C2877
:10007600071428184028871041288714281845286F
:1000860007114628071528184A2887114B2887156F
:1000960028184F2807125028071628185428061023
:1000A600552806142818592886105A288614281800
:1000B6005E2806115F28061528186328861164280D
:1000C60086152818682806126928061628186D2825
:1000D60005106E28051428187228851073288514B3
:1000E6002818772805117828051528187C288511E1
:1000F6007D288515281881288612822886160800EC
:10010600831203132618892887128A288716260839
:0A011600A8002708A9000320080034
:100120008312031326189628871397288717260803
:0A013000A8002708A900032008001A
:10013A00033083120313FB008A30FC005530FD00A4
:10014A00FD0BA528FC0BA528FB0BA5280000000029
:02015A0008009B
:0E015C008312031325088A002408820008007D
:10016A00831203132618BB288813BC28881726185D
:10017A00C0288712C12887162618C5280713C6283B
:10018A0007172618CA288512CB2885162618CF28BD
:08019A008713D0288717080025
:1001A200831203132618D7288813D82888172608FD
:0A01B200A8002708A9000320080098
:1001BC00831203132618E4288512E52885162608D1
:0A01CC00A8002708A900032008007E
:1001D600831203132218F1288813F2288817823015
:1001E600FC00DD30FD00FD0BF628FC0BF6280000B8
:1001F60000002018002988130129881722180529CC
:100206008712062987168230FC00DD30FD00FD0BC3
:100216000A29FC0B0A29000000002018142987125D
:10022600152987162218192907131A290717823044
:10023600FC00DD30FD00FD0B1E29FC0B1E29000015
:1002460000002018282907132929071722182D2905
:1002560085122E2985168230FC00DD30FD00FD0B4F
:100266003229FC0B32290000000020183C29851297
:100276003D2985162218412987134229871782307E
:10028600FC00DD30FD00FD0B4629FC0B4629000075
:10029600000020185029871351298717221855293D
:1002A6008512562985168230FC00DD30FD00FD0BD7
:1002B6005A29FC0B5A2900000000201864298512CF
:1002C600652985162218692907136A2907178230B6
:1002D600FC00DD30FD00FD0B6E29FC0B6E290000D5
:1002E60000002018782907137929071722187D2975
:1002F60087127E2987168230FC00DD30FD00FD0B5B
:100306008229FC0B82290000000020188C29871204
:100316008D298716221891298813922988178230E9
:10032600FC00DD30FD00FD0B9629FC0B9629000034
:0403360000000800BB
:10033A00831203132618A3290713A42907172608CB
:0A034A00A8002708A90003200800FE
:100354009D202008A8002108A90003202208A60047
:100364002308A700B5202218B9290510BA290514B5
:100374009D202218BF298510C02985149D2022188C
:10038400C5290511C62905159D202218CB298511DB
:10039400CC2985159D202218D1298612D2298616AA
:1003A4009D202218D7290612D82906169D20221826
:1003B400DD290712DE2907169D202218E3290812D9
:1003C400E42908169D202218E9290813EA290817A8
:1003D4009D202218EF298812F02988169D202218C2
:1003E400F5290911F62909159D202218FB298910E0
:1003F400FC2989149D202218012A0910022A0914B3
:100404009D202218072A0810082A08149D20221863
:100414000D2A07100E2A07149D202218132A0610ED
:10042400142A06149D202218192A86101A2A8614C2
:100434009D2022181F2A0611202A06159D20221805
:10044400252A8611262A86159D2022182B2A8711F3
:100454002C2A87159D202218312A8811322A8815C2
:100464009D202218372A0811382A08159D202218A1
:100474003D2A88103E2A88149D202218432A87107A
:10048400442A87149D202218492A07114A2A07154D
:100494009D202008A8002108A90003202008A60008
:0804A4002108A700B5200800A3
:1004AC00831203132008A8002108A90003202008A8
:1004BC00A6002108A700B5202218662A0510672A75
:1004CC000514EB2022186C2A85106D2A8514EB205C
:1004DC002218722A0511732A0515EB202218782A86
:1004EC008511792A8515EB2022187E2A86127F2AFF
:1004FC008616EB202218842A0610852A0614EB2077
:10050C0022188A2A86108B2A8614EB202218902A0D
:10051C000611912A0615EB202218962A8611972A85
:10052C008615EB2022189C2A06129D2A0616EB2013
:10053C002218A22A0710A32A0714EB202218A82A93
:10054C008710A92A8714EB202218AE2A0711AF2A8C
:10055C000715EB202218B42A8711B52A8715EB2032
:10056C002218BA2A0712BB2A0716EB202218C02A17
:10057C000810C12A0814EB202218C62A8810C72A92
:10058C008814EB202218CC2A0811CD2A0815EB2050
:10059C002218D22A8811D32A8815EB202218D82A9F
:1005AC000812D92A0816EB202218DE2A0910DF2A95
:1005BC000914EB202218E42A8910E52A8914EB206F
:1005CC002218EA2A0911EB2A0915EB202218F02A25
:1005DC008812F12A8816EB202218F62A0813F72A1B
:0605EC000817EB200800D7
:1005F200AE208A110A128000840AA40A0319A50AED
:08060200F003031DF92A0800B2
:10060A009D202208A6002308A700D1209D202208A9
:10061A00A6002308A70083209D202208A6002308FD
:10062A00A7009D219D202208A6002308A700DE20FE
:10063A009D202208A6002308A70090209D202008BC
:10064A00A6002108A70090202008A6002108A700DC
:10065A00DE202008A6002108A7009D212008A60068
:10066A002108A70083202008A6002108A700D1207E
:10067A002208A6002308A70090209D202208A60091
:10068A002308A700DE209D202208A6002308A70031
:10069A009D219D202208A6002308A70083209D20D3
:1006AA002208A6002308A700D1209D202008A60022
:1006BA002108A700D1202008A6002108A70083202E
:1006CA002008A6002108A7009D212008A6002108CD
:1006DA00A700DE202008A6002108A70090209D2060
:1006EA002008A8002108A90003202008A600210844
:0606FA00A700B520080076
:1007000083120313A001A1010130A200A3018730CD
:1007100083169F0085018601870188018901831264
:100720008501860187018801890105239D20AA2171
:0A0730009D2056229D20952B9C2B46
:02400E004A2F37
:00000001FF
