:020000008C2949
:06000600000000000800EC
:10000C000F3083120313FC004730FD00FD0B0C284E
:0A001C00FC0B0C2800000000080097
:0E002600213083120313FD00FD0B1728080084
:1000340083120313B51B2028861321288617351B2A
:100044002528061326280617B51A2A2886122B28CF
:100054008616351A2F280612302806162418342836
:10006400061535280611861503208611B5193C2876
:1000740086133D288617351941280613422806178A
:10008400B518462886124728861635184B280612B6
:100094004C280616241850280615512806118615D2
:1000A40003208611241C58280620592813200800F0
:1000B4000E3083120313FD00FD0B5E2800000800C0
:1000C40083120313F801F9011030FC00710DF80DCF
:1000D400F90D7408F8027508031C750FF90203186A
:1000E4007A287408F80775080318750FF9070310C0
:0A00F400F00DF10DFC0B6828080068
:1000FE008312031324103408B5001A2024140800A8
:0E010E008312031323088A00220882000800CF
:10011C00A028803083120313AF00B328C030AF0087
:10012C00B3289430AF00B328D430AF00B32880305C
:10013C00AF00B328831203132F08013A03198F2839
:10014C002F08023A031994282F08033A0319972809
:10015C002F08043A03199A289D283003F0002F0821
:10016C00F0077008AF007008B5001A202410B20117
:10017C0032083107840000080319CC2832083107F3
:10018C0084000008B4007F20B20ABE2824140800A2
:10019C0083120313B201053032020318DC28320833
:1001AC003107840020308000B20AD1283208310790
:1001BC0084008001B20332083107B3000A30F40026
:1001CC00F5012F08F0003008F10062207808F000EB
:1001DC007908F1003030F007330884007008800093
:1001EC000A30F400F5012F08F0003008F10062200D
:1001FC007008AF007108B00000307106031D0829AB
:10020C0000307006031D0B290D29B203E1280800EC
:10021C0087208A110A128000840AA20A0319A30AF1
:08022C00F003031D0E29080078
:1002340083160313861106110612861206138613FB
:1002440083128611061186130613861206120620DF
:10025400062006208616061686150320861106201B
:100264008615032086110620861503208611062094
:100274000612861503208611062086150320861192
:100284008612861786150320861106208613061605
:100294008615032086110612861503208611062072
:1002A400861503208611061686150320861106205E
:1002B400061286150320861186170617861606165B
:0C02C40086150320861106202414080073
:1002D000831203139F01C0309F0483161F179F17BB
:1002E00083122F08F000F00D7010F00D7010F00D5B
:1002F000701070089F041F145A201F151F1D82299B
:1003000000007E291F101E08F100F00183161E0850
:08031000F0040030F1040800C4
:100318001A210130B5001A200C30B5001A208316B6
:100328009F018312AF01682170088312A000710831
:10033800A1007008AF007108B0002530B100CE20D0
:100348000130AF000130B0002530B1008E20952972
:02035800AC29CE
:02400E004A2F37
:00000001FF
