:02000000422894
:0E0006008312031321088A00200882000800DC
:10001400831603139816903083129800831687175B
:10002400071383128C1E19281A08F00013280800DD
:0E0034000030831203138C1A0130F000080014
:10004200831203131A08F100981C29281812181693
:060052007108F000080037
:10005800831603139818322800002C2883122308CB
:0400680099000800F3
:10006C0003208A110A128000840AA00A0319A10A2B
:08007C00F003031D3628080003
:100084008316031388018312880133308316990081
:1000940018150A200230FB000430FC00BA30FD00C1
:1000A400FD0B5228FC0B5228FB0B522800000810B1
:1000B4001A207008013A031D8B2821207008A20021
:1000C4007008613A0130031D0030F10008186C28F3
:1000D40003106D280314F0010318F00A7108F005E9
:1000E4000319752808102208613A0130031D0030F5
:1000F400F10008187F28031480280310F001031866
:10010400F00A7108F0050319882808142208A300CE
:060114002C205A288C2863
:02400E004A2F37
:00000001FF
