:020000004A2A8A
:0E000600213083120313FD00FD0B07280800B4
:100014000F3083120313FC004730FD00FD0B102842
:0A002400FC0B10280000000008008B
:06002E00000000000800C4
:1000340083160313AF1B21288312861323288312EC
:10004400861783162F1B2928831206132B28831245
:1000540006178316AF1A31288312861233288312A7
:10006400861683162F1A3928831206123B28831208
:10007400061667183F28061540280611861517200E
:1000840086118316AF194928831286134B288312CD
:10009400861783162F1951288312061353288312A7
:1000A40006178316AF185928831286125B28831209
:1000B400861683162F18612883120612632883126A
:1000C400061667186728061568280611861517206E
:0E00D4008611671C6F280A2070280320080080
:1000E2008316031398187728000071282F088312AB
:0400F2009900080069
:1000F600831203136D08F2007208840000080319C6
:100106008628F20A7F287208F100F20A6E08F000CB
:10011600EE0A700884000008F00071088400700878
:10012600800071088400000803199A2886286D0843
:04013600F0000800CD
:10013A008312031367106D088316AF001A20671421
:02014A000800AB
:0E014C008312031362088A0061088200080013
:10015A0083120313F801F9011030FC00710DF80D38
:10016A00F90D7408F8027508031C750FF9020318D3
:10017A00C5287408F80775080318750FF9070310DE
:0A018A00F00DF10DFC0BB328080086
:100194000E3083120313FD00FD0BCE28000008006F
:1001A40083120313EF016D0884000008EE006E084B
:1001B400003A0319E8286E088316AF007120EF0A8D
:0E01C4006F086D0784000008EE00D9280800BF
:1001D200FB28803083120313E8000E29C030E800A8
:1001E2000E299430E8000E29D430E8000E29803020
:1001F200E8000E29831203136808013A0319EA285A
:100202006808023A0319EF286808033A0319F2282A
:100212006808043A0319F528F8286903F000680809
:10022200F0077008E80070088316AF001A20671004
:10023200EB016B086A0784000008031928296B0880
:100242006A0784000008ED009D20EB0A1A29671452
:020252000800A2
:10025400413083120313ED00D2200D308316AF001A
:1002640071200A308316AF0071201530FB004B302B
:10027400FC00BE30FD00FD0B3D29FC0B3D29FB0BB2
:100284003D2900005630ED006808EE007B20700820
:0E029400ED00D2201A308316AF007120080052
:1002A200831203139F01C0309F0483161F179F17E9
:1002B20083126808F000F00D7010F00D7010F00D50
:1002C200701070089F041F14CA201F151F1D6B2970
:1002D200000067291F101E08F100F00183161E0896
:0802E200F0040030F1040800F3
:1002EA00831203131A08F100981C7D291812181694
:0602FA007108F00008008D
:0E0300000030831203138C1A0130F000080045
:10030E008316031386110611061286120613861320
:10031E0083128611061186130613861206120A2000
:10032E000A200A20861606168615172086110A2020
:10033E008615172086110A208615172086110A2089
:10034E0006128615172086110A208615172086118B
:10035E00861286178615172086110A208613061612
:10036E0086151720861106128615172086110A206B
:10037E0086151720861106168615172086110A2057
:10038E00061286151720861186170617861606166C
:0C039E008615172086110A20671408003D
:1003AA00A6208A110A128000840AE10A0319E20AC5
:0803BA00F003031DD529080022
:1003C20083160313981690308312980083168717AA
:1003D200071383128C1EF0291A08F000EA2908007C
:1003E20083120313EB0105306B020318FF296B081C
:1003F2006A07840020308000EB0AF4296B086A0740
:1004020084008001EB036B086A07EC000A30F400F9
:10041200F5016808F0006908F100AD207808F000E5
:100422007908F1003030F0076C0884007008800011
:100432000A30F400F5016808F0006908F100AD2007
:100442007008E8007108E90000307106031D2B2ACC
:1004520000307006031D2E2A302AEB03042A0800FE
:100462002A3083120313ED00D2200D308316AF0021
:1004720071200A308316AF0071202030ED00D220A7
:100482000D308316AF0071200A308316AF00712041
:02049200080060
:100494001823872101308316AF001A200C308316ED
:1004A400AF001A2083169F0188018312880133301C
:1004B400831699001815E1210230FB000430FC007A
:1004C400BA30FD00FD0B642AFC0B642AFB0B642A82
:1004D40000003122E801512170088312E5007108FF
:1004E400E60080217008013A031DAD2A75217008C9
:1004F400E300E40100306406031D822A54306306DD
:10050400031DAC2A6508E8006608E900A030EA008B
:10051400F121A030ED003C30EE007B20A030E8005B
:100524002A210130E8000130E900A030EA00E92086
:100534000B30FB002630FC005D30FD00FD0BA02AD3
:10054400FC0BA02AFB0BA02A000000000814E30106
:10055400E401AD2A0810E301E4016508E800660837
:10056400E900A030EA00F1210130E8000130E9009F
:10057400A030EA00E9200B30FB002630FC005D309F
:10058400FD00FD0BC32AFC0BC32AFB0BC32A00008E
:0E059400000001308316AF001A206C2AD02A16
:1006300020308400413083120313F000D630E100F3
:080640000230E200D5210800A0
:1005AC00413454342B3443344D34473446343D3485
:0405BC0031340034A2
:1005C000413454342B3443344E344D3449343D3467
:1005D00033342C3432342C3432342C3431342C3403
:0405E000313400347E
:0A05E400733461347234693400345A
:1005EE00413454342B3443344D34473453343D3436
:1005FE0022343034373437343234323434343334C2
:0A060E003334323430342234003427
:100618007334613472346934203441346C34613455
:0606280072346D34003451
:02400E004A2F37
:00000001FF
