:100000000428FF3FFF3FFF3F03138316860183123F
:1000100086010D30FC00FF30FB00FF30FA00FC0BC6
:1000200012281928FB0B15281828FA0B1528122856
:100030000F28BF30FB00FF30FA00FB0B20282328DD
:10004000FA0B20281D282B30FA00FA0B2528000077
:1000500000000000FF3086000D30FC00FF30FB0088
:10006000FF30FA00FC0B35283C28FB0B38283B28D6
:10007000FA0B382835283228BF30FB00FF30FA0051
:10008000FB0B43284628FA0B432840282B30FA0064
:10009000FA0B482800000000000007284E28FF3F08
:02400E007A3FF7
:00000001FF
