:02000000422894
:0E0006008312031321088A00200882000800DC
:10001400831603139816903083129800831687175B
:10002400071383128C1E19281A08F00013280800DD
:0E0034000030831203138C1A0130F000080014
:10004200831203131A08F100981C29281812181693
:060052007108F000080037
:10005800831603139818322800002C2883122308CB
:0400680099000800F3
:10006C0003208A110A128000840AA00A0319A10A2B
:08007C00F003031D3628080003
:100084008316031388018312880133308316990081
:1000940018150A200230FB000430FC00BA30FD00C1
:1000A400FD0B5228FC0B5228FB0B522800001A208F
:1000B4007008013A031D822821207008A2007008EC
:1000C400A3002C202208613A031D69280814220881
:1000D400413A031D6E2808102208623A031D732852
:1000E40088142208423A031D782888102208633AAB
:1000F400031D7D2808152208433A031D8228081190
:0401040059288328CB
:02400E004A2F37
:00000001FF
