:020000002928AD
:10000800FF00030E8301A5000A08A4008A01A20AC2
:100018000319A30A0C1024088A00250E8300FF0E7A
:040028007F0E09003E
:0E002C008312031321088A00200882000800B6
:10003A0016208A110A128000840AA00A0319A10A4A
:08004A00F003031D1D2808004E
:100052008B170B178312031310140C1083160C1436
:100062008312A201A301831688010F308312880034
:100072002308073A031D3F2808302206031D44289F
:0A0082008809A201A30139284528CE
:02400E004A2F37
:00000001FF
