:020000003228A4
:10000800FF00030E8301A6000A08A7008A018B1CC3
:1000180012281E30A2000030A3008B100C1C1828D8
:10002800A40A0319A50A0C1027088A00260E8300C3
:06003800FF0E7F0E09001F
:0E003E008312031321088A00200882000800A4
:10004C001F208A110A128000840AA00A0319A10A2F
:08005C00F003031D2628080033
:10006400843083120313A2000330A3008B170B17F1
:1000740010140C1083160C140B160B160117831294
:10008400A401A501831688010F3083128800250876
:100094002306031D4F2822082406031D542888091B
:0800A400A401A501492855281B
:02400E004A2F37
:00000001FF
