:02000000462890
:10000600831603139818092800000328831234085E
:040016009900080045
:0E001A008312031330088A002F0882000800AA
:1000280083120313B301310884000008B2003208B8
:10003800003A031929283208B4000320B30A330808
:0C004800310784000008B2001B280800EB
:100054000D208A110A128000840AAF0A0319B00A1B
:08006400F003031D2A28080027
:10006C008316031398169030831298008316871703
:10007C00071383128C1E45281A08F0003F2808002D
:10008C00413083120313A0005430A1004430A2006D
:10009C003030A3003730A4003730A5003230A60032
:1000AC003230A7003430A8003330A9003330AA0016
:1000BC003230AB003030AC003B30AD00AE01FF3025
:1000CC0083168600880183128801333083169900C9
:1000DC00181536200230FB000430FC00BA30FD004D
:1000EC00FD0B7628FC0B7628FB0B76280000061CF3
:1000FC0098282030B10014200D30B40003200A30B1
:10010C00B400032008140B30FB002630FC005D30DB
:10011C00FD00FD0B8F28FC0B8F28FB0B8F2800009C
:0A012C000000992808107D289A2889
:02400E004A2F37
:00000001FF
