:020000002828AE
:10000800FF00030E8301A4000A08A5008A01A201CB
:10001800A3018B1025088A00240E8300FF0E7F0E93
:020028000900CD
:0E002A008312031321088A00200882000800B8
:1000380015208A110A128000840AA00A0319A10A4D
:08004800F003031D1C28080051
:100050008B170B168316031301178312A201A3013A
:10006000831688018312880122088800A20A0319D6
:10007000A30A0B30FB002630FC005D30FD00FD0BB9
:100080003F28FC0B3F28FB0B3F28000000003428D2
:020090004828FE
:02400E004A2F37
:00000001FF
