:10000000012BFF3FFF3FFF3F0000000008000F30C3
:1000100003138312FB00FF30FA00FB0B1028132898
:10002000FA0B10280D283E30FA00FA0B15280000B4
:100030000800213003138312FA00FA0B1D28080070
:1000400003138312200884002109F0007008800542
:100050002209F00070088005230884002508240484
:10006000F0002608F0042708F004F0097008800565
:100070000030BF1B0130F1007108013A031D422816
:100080002408800400303F1B0130F1007108013A60
:10009000031D4C28250880040030BF1A0130F100F0
:1000A0007108013A031D56282608800400303F1AC3
:1000B0000130F1007108013A031D6028270880040F
:1000C000200884002808013A031D6B282209F0004B
:1000D000700880056D28220880042108800404200F
:1000E0002109F000700880052209F00070088005E1
:1000F0002308840025082404F0002608F0042708BB
:10010000F004F009700880050030BF190130F100DB
:100110007108013A031D8E282408800400303F191D
:100120000130F1007108013A031D98282508800468
:100130000030BF180130F1007108013A031DA228F8
:100140002608800401303F05F1007108013A031DC3
:10015000AB2827088004200884002808013A031DE2
:10016000B6282209F00070088005B828220880040B
:100170002108800404202109F00070088005280867
:10018000013A031DC5280720C628192008000720AA
:10019000072007203708F0000130F4007008031929
:1001A000D528F40D7410FF3FCF287408A400380838
:1001B000F0000130F30070080319E228F30D73100A
:1001C000FF3FDC287308A5003908F0000130F20079
:1001D00070080319EF28F20D7210FF3FE92872082A
:1001E000A6003A08F0000130F10070080319FC285D
:1001F000F10D7110FF3FF6287108A7003C08F000D0
:100200000130A200700803190929A20D2210FF3F36
:1002100003293D08F0000130A900700803191429D2
:10022000A90D2910FF3F0E293E08F0000130A10062
:10023000700803191F29A10D2110FF3F1929360845
:10024000A3003B08A0003608840073087404F00083
:100250007208F0047108F004F00970088005841732
:1002600025082404F0002608F0042708F004F0090B
:100270007008800584132008840029082204F000F7
:100280002108F004F0097008800584172908220469
:10029000F0002108F004F009700880058413230899
:1002A000840026080004F00027087004800020085D
:1002B0008400210880042109F000700880050720CF
:1002C000210880042109F00070088005072021081A
:1002D00080042109F00070088005072023088400AD
:1002E000260880042709F000700880052008840093
:1002F000210880042109F0007008800507202108EA
:1003000080042109F1007108800523088400260972
:10031000F00070088005240880042008840021086B
:100320008004710880050720230884002409F00058
:1003300070088005270880042008840021088004B4
:100340002109F10071088005230884002709F000C5
:100350007008800520088400210880047108800549
:100360000720210880042109F00070088005230877
:100370008400270880042008840021088004700875
:1003800080050720230884002709F00070088005F5
:1003900020088400210880042109F10071088005EB
:1003A0002308840027080004F0002608F00425082C
:1003B000F0042408700480002008840021088004D0
:1003C0007108800507200130A80008000E300313D3
:1003D0008312FA00FA0BEA290000080003138312C3
:1003E000F801F9011030FC00710DF80DF90D7408D9
:1003F000F8027508031C750FF9020318062A740821
:10040000F80775080318750FF9070310F00DF10DC3
:10041000FC0BF429080003138312A8013608BF005F
:1004200020200130A8000800031383123208B60010
:100430000730B7000630B8000530B9000430BA0004
:100440003208BB000230BC00BD010330BE00C72033
:100450000800031383129F01C0309F0440308316AD
:100460001F04F00070089F00803070049F0083120A
:100470003208F000F00D7010F00D7010F00D7010DB
:1004800070089F041F14E6211F1500301F1901304A
:10049000F2007208013A031D4F2A0000452A1E0887
:1004A000F200F3017208F300F2017208B30073085E
:1004B000B40083161E0872048312B3007308B400DC
:1004C0000030B4041F103308F0003408F1000800B5
:1004D000013003138312B5003308003C031D722A58
:1004E0003208093C0318752AB50A3308003C031D7D
:1004F0007B2A3208633C03187E2AB50A3308033C82
:10050000031D842A3208E73C0318872AB50A3308FA
:10051000273C031D8D2A32080F3C0318902AB50A88
:100520003408840020308000840A8000840A80001F
:10053000840A8000840A8000840A800184033508CC
:10054000003C0318C12A0A30F400F5013208F0001B
:100550003308F100EE217808F0007908F10030301E
:100560007007800084030A30F400F5013208F000BF
:100570003308F100EE217008B2007108B300B50332
:100580009F2A0800031383123208013A031DCB2A65
:100590008030B200E22A3208023A031DD22AC0306B
:1005A000B200E22A3208033A031DD92A9430B2007D
:1005B000E22A3208043A031DE02AD430B200E22ACB
:1005C0008030B2003303F0003208F0077008B20048
:1005D0007008BF002020A801B50135083407840049
:1005E0000008F2007208003A0319FE2A35083407A1
:1005F00084000008B6000B22B50AED2A0130A800DD
:100600000800063003138312B20014220C30BF001E
:1006100020200130BF00202083169F018312B201E9
:1006200029227008AA007108AB007008B200710896
:10063000B3002C30B40068220130B2000130B300A6
:100640002C30B400C2220E2B242BFF3FFF3FFF3F74
:02400E007A3FF7
:00000001FF
