:02000000E128F5
:100006008316031398180928000003288312390859
:040016009900080045
:0E001A008312031321088A00200882000800C8
:1000280083120313F801F9011030FC00710DF80D6B
:10003800F90D7408F8027508031C750FF902031806
:100048002C287408F80775080318750FF9070310AA
:0A005800F00DF10DFC0B1A28080052
:100062000E3083120313FD00FD0B3528000008003B
:10007200831203131A08F100981C4128181218164B
:060082007108F000080007
:1000880083120313B70105303702031852283708C3
:100098003607840020308000B70A4728370836071B
:1000A80084008001B70337083607B8000A30F40027
:1000B800F5013408F0003508F10014207808F00044
:1000C8007908F1003030F0073808840070088000A3
:1000D8000A30F400F5013408F0003508F100142066
:1000E8007008B4007108B50000307106031D7E2841
:1000F80000307006031D81288328B703572808009D
:10010800831203139F01C0309F0483161F179F1784
:1001180083123408F000F00D7010F00D7010F00D1F
:10012800701070089F041F1431201F151F1D9E2872
:1001380000009A281F101E08F100F00183161E08FF
:08014800F0040030F10408008E
:0E0150000030831203138C1A0130F0000800F7
:10015E000D208A110A128000840AA00A0319A10A2E
:08016E00F003031DAF28080097
:1001760083120313B601340884000008B50035085D
:10018600003A0319D0283508B9000320B60A360804
:0C019600340784000008B500C2280800EF
:1001A20083160313981690308312980083168717CC
:1001B200071383128C1EE0281A08F000DA280800C0
:1001C200831603139F01880183128801333083163B
:1001D20099001815D1200230FB000430FC00BA301F
:1001E200FD00FD0BF228FC0BF228FB0BF2280000AD
:1001F200A8207008013A031D2A2939207008B3008B
:100202007008743A031D1529B101B201B4018420AA
:1002120070088312B1007108B2007008B100710851
:10022200B200B20CB10CB2133308613A031D1A29A1
:1002320008143308413A031D1F2908103108B4007D
:100242003208B5002230B60044202230B400BB2070
:06025200B301F9282B297D
:02400E004A2F37
:00000001FF
